:100000000C94A6070C94ED070C94ED070C94ED07E7
:100010000C94ED070C94ED070C94ED070C94ED0790
:100020000C94ED070C94ED070C9435280C940829DA
:100030000C94481F0C94ED070C94ED070C94ED07FD
:100040000C94ED070C94ED070C94ED070C94ED0760
:100050000C94ED070C94A91F0C94ED070C94ED077C
:100060000C94ED070C94ED070C94ED070C94ED0740
:100070000C94ED070C94ED070C94ED070C94ED0730
:100080000C94ED070C94ED070C94ED070C94ED0720
:100090000C94ED070C94ED070C94ED070C94ED0710
:1000A0000C94ED070C94ED070C94ED0701E301159A
:1000B000021502E374640113021301120212011A01
:1000C000021A010802080115021501160216010B99
:1000D000020B01080208010F020F010F020F012C91
:1000E000022C01E10134023474640122022202E193
:1000F00001160216011E021E0123022301E1012244
:10010000022202E10131023101160216011E021E15
:1001100001230223013702370113021301160216CD
:10012000011E021E012C022C011E021E01220222AF
:1001300001E10134023402E1012802280001E30157
:1001400015021502E3746401130213011202120175
:100150001A021A01080208011502150116021601F9
:100160000B020B01080208010F020F010F020F0121
:100170002C022C01E10134023474640122022202B7
:10018000E101160216011E021E0123022301E101F4
:1001900022022202E10131023101160216011E0281
:1001A0001E01230223013702370113021301160235
:1001B00016011E021E012C022C011E021E0121022C
:1001C0002101E10134023402E1012802280001E3A7
:1001D0000115021502E374640113021301120212E5
:1001E000011A021A01080208011502150116021669
:1001F000010B020B01080208010F020F010F020F91
:10020000012C022C01E10134023474640122022227
:1002100002E101160216011E021E0123022301E162
:100220000122022202E10131023101160216011EF1
:10023000021E0123022301370237011302130116A4
:100240000216011E021E012C022C011E021E01209C
:10025000022001E10134023402E1012802280001F8
:10026000E30115021502E374640113021301120283
:1002700012011A021A0108020801150215011602DC
:1002800016010B020B01080208010F020F010F02F9
:100290000F012C022C01E1013402347464012202AA
:1002A0002202E101160216011E021E012302230191
:1002B000E10122022202E10131023101160216019E
:1002C0001E021E012302230137023701130213010C
:1002D000160216011E021E012C022C011E021E0116
:1002E0001F021F01E10134023402E101280228004B
:1002F00001E30115021502E37464011302130112F4
:100300000212011A021A010802080115021501164B
:100310000216010B020B01080208010F020F010F68
:10032000020F012C022C01E1013402347464012219
:10033000022202E101160216011E021E01230223FF
:1003400001E10122022202E101310231011602160D
:10035000011E021E0123022301370237011302137B
:1003600001160216011E021E012C022C011E021E85
:10037000011E021E01E10134023402E101280228BB
:100380000001E30115021502E37464011302130175
:10039000120212011A021A010802080115021501BF
:1003A000160216010B020B01080208010F020F01D1
:1003B0000F020F012C022C01E1013402347464019C
:1003C00022022202E101160216011E021E01230270
:1003D0002301E10122022202E10131023101160270
:1003E00016011E021E0123022301370237011302E8
:1003F0001301160216011E021E012C022C011E0200
:100400001E0127022701E10134023402E101280222
:10041000280001E30115021502E3746401130213BD
:1004200001120212011A021A01080208011502152E
:1004300001160216010B020B01080208010F020F40
:10044000010F020F012C022C01E10134023474640B
:100450000122022202E101160216011E021E0123E0
:10046000022301E10122022202E1013102310116DF
:100470000216011E021E0123022301370237011357
:10048000021301160216011E021E012C022C012667
:10049000022601E10134023402E1012802280001B0
:1004A000E30115021502E374640113021301120241
:1004B00012011A021A01080208011502150116029A
:1004C00016010B020B01080208010F020F010F02B7
:1004D0000F012C022C01E101340234746401220268
:1004E0002202E101160216011E021E01230223014F
:1004F000E10122022202E10131023101160216015C
:100500001E021E01230223013702370113021301C9
:10051000160216011E021E012C022C0125022501C5
:10052000E10134023402E1012802280001E301154F
:10053000021502E374640113021301120212011A7C
:10054000021A010802080115021501160216010B14
:10055000020B01080208010F020F010F020F012C0C
:10056000022C01E10134023474640122022202E10E
:1005700001160216011E021E0123022301E10122BF
:10058000022202E10131023101160216011E021E91
:100590000123022301370237011302130116021649
:1005A000011E021E012C022C0124022401E101344F
:1005B000023402E1012802280001E30115021502BC
:1005C000E374640113021301120212011A021A01E8
:1005D0000802080115021501160216010B020B0193
:1005E000080208010F020F010F020F012C022C015B
:1005F000E10134023474640122022202E101160294
:1006000016011E021E0123022301E1012202220221
:10061000E10131023101160216011E021E01230200
:1006200023013702370113021301160216011E02BD
:100630001E012C022C0123022301E10134023402A9
:10064000E1012802280001E30115021502E37464A8
:100650000113021301120212011A021A0108020800
:100660000115021501160216010B020B0108020802
:10067000010F020F010F020F012C022C01E10134C6
:10068000023474640122022202E101160216011EE4
:10069000021E0123022301E10122022202E10131B3
:1006A000023101160216011E021E01230223013728
:1006B00002370113021301160216011E021E012C3D
:1006C000022C0122022201E10134023402E101285C
:1006D00002280001E30115021502E374640113020C
:1006E0001301120212011A021A010802080115026E
:1006F0001501160216010B020B01080208010F0278
:100700000F010F020F012C022C01E101340234749D
:10071000640122022202E101160216011E021E01DC
:1007200023022301E10122022202E101310231010F
:10073000160216011E021E01230223013702370191
:1007400013021301160216011E021E012C022C01B7
:1007500021022101E10134023402E10128022800D2
:1007600001E30115021502E374640113021301127F
:100770000212011A021A01080208011502150116D7
:100780000216010B020B01080208010F020F010FF4
:10079000020F012C022C01E10134023474640122A5
:1007A000022202E101160216011E021E012302238B
:1007B00001E10122022202E1013102310116021699
:1007C000011E021E01230223013702370113021307
:1007D00001160216011E021E012C022C012002200D
:1007E00001E10134023402E1012802280001E301A1
:1007F00015021502E37464011302130112021201BF
:100800001A021A0108020801150215011602160142
:100810000B020B01080208010F020F010F020F016A
:100820002C022C01E1013402347464012202220200
:10083000E101160216011E021E0123022301E1013D
:1008400022022202E10131023101160216011E02CA
:100850001E0123022301370237011302130116027E
:1008600016011E021E012C022C011F021F01E101B4
:1008700034023402E1012802280001E301150215C7
:1008800002E374640113021301120212011A021A24
:10089000010802080115021501160216010B020BD0
:1008A00001080208010F020F010F020F012C022C98
:1008B00001E10134023474640122022202E10116D2
:1008C0000216011E021E0123022301E1012202225F
:1008D00002E10131023101160216011E021E01233E
:1008E0000223013702370113021301160216011EFB
:1008F000021E012C022C011E021E01E101340234F1
:1009000002E1012802280001E30115021502E37447
:10091000640113021301120212011A021A010802E1
:10092000080115021501160216010B020B0108023F
:1009300008010F020F010F020F012C022C01E1012F
:1009400034023474640122022202E101160216010B
:100950001E021E0123022301E10122022202E10103
:1009600031023101160216011E021E01230223016B
:100970003702370113021301160216011E021E016F
:100980002C022C0127022701E10134023402E1018B
:1009900028022800003001300230033004300530D6
:1009A00006300730083009300A300B30A5000D3012
:1009B0000E30357000000000000000000000000054
:1009C0000000000000000000000000000000000027
:1009D0000000000000000000000000000000000017
:1009E0000000000000000000000000000000000007
:1009F00000000000000000000000000000000000F7
:100A000000000000000000000000000000000000E6
:100A100000000000000000000000000000000000D6
:100A200000000000000000000000000000000000C6
:100A300000000000000000000000000000000000B6
:100A400000000000000000000000000000000000A6
:100A50000000000000000000000000000000000096
:100A60000000000000000000000000000000000086
:100A70000000000000000000000000000000000076
:100A80000000000000000000000000000000000066
:100A90000000000000000000000000000000000056
:100AA0000000000000000000000000000000000046
:100AB0000000000000000000000000000000000036
:100AC0000000000000000000000000000000000026
:100AD0000000000000000000000000000000000016
:100AE0000000000000000000000000000000000006
:100AF00000000000000000000000000000000000F6
:100B000000000000000000000000000000000000E5
:100B100000000000000000000000000000000000D5
:100B200000000000000000000000000000000000C5
:100B300000000000000000000000000000000000B5
:100B400000000000000000000000000000000000A5
:100B50000000000000000000000000000000000095
:100B60000000000000000000000000000000000085
:100B70000000000000000000000000000000000075
:100B80000000000000000000000000000000000065
:100B900000000000643214643214783C1E1E140AF3
:100BA000050000000001010102020304050506071B
:100BB000090A0B0C0E0F1112141517191B1D1F21FA
:100BC0002325282A2C2F313436393B3E41434649D0
:100BD0004C4F5255585A5D6164676A6D70737679EF
:100BE0007C7F8386898C8F9295989B9EA2A5A7AACD
:100BF000ADB0B3B6B9BCBEC1C4C6C9CBCED0D3D5D7
:100C0000D7DADCDEE0E2E4E6E8EAEBEDEEF0F1F381
:100C1000F4F5F6F8F9FAFAFBFCFDFDFEFEFEFFFF27
:100C2000FFFFFFFFFFFEFEFEFDFDFCFBFAFAF9F8F9
:100C3000F6F5F4F3F1F0EEEDEBEAE8E6E4E2E0DEFF
:100C4000DCDAD7D5D3D0CECBC9C6C4C1BEBCB9B609
:100C5000B3B0ADAAA7A5A29E9B9895928F8C8986CA
:100C600083807C797673706D6A6764615D5A5855CC
:100C7000524F4C494643413E3B393634312F2C2AA2
:100C8000282523211F1D1B1917151412110F0E0CD7
:100C90000B0A090706050504030202010101000011
:100CA0000000000000000101010101010101010239
:100CB000020202020202020203030303030303030C
:100CC00004040404040405050505050606060606D5
:100CD00007070707080808080909090A0A0A0A0B8A
:100CE0000B0B0C0C0C0D0D0D0E0E0F0F0F10101129
:100CF00011111212131314141515161617171818AC
:100D000019191A1A1B1C1C1D1D1E1F1F2020212211
:100D1000222324252526272728292A2B2B2C2D2E54
:100D20002F2F30313233343536363738393A3B3C71
:100D30003D3E3F4041424344464748494A4B4C4D63
:100D40004F50515253555657585A5B5C5E5F606224
:100D500063646667696A6C6D6E70717374767879B6
:100D60007B7C7E8081838486888A8B8D8F91929410
:100D700096989A9B9D9FA1A3A5A7A9ABADAFB1B330
:100D8000B5B7B9BBBDBFC1C4C6C8CACCCFD1D3D615
:100D9000D8DADCDFE1E4E6E8EBEDF0F2F5F7FAFCB7
:100DA000FF12036B006500790062006F0061007242
:100DB0000064000000160371006D006B0062007596
:100DC0000069006C00640065007200000004030903
:100DD0000409026D00040100A0FA090400000103E7
:100DE00001010009211101000122400007058103D2
:100DF00008000A0904010001030102000921110190
:100E00000001224D000705820308000A09040200C0
:100E1000010300000009211101000122360007052D
:100E2000830308000A0904030001030000000921EC
:100E3000110100012239000705840320000112017D
:100E4000100100000008EDFE6060010001020001D9
:100E500005010906A101050719E029E7150025018B
:100E60009508750181020508190129059505750187
:100E700091029501750391010507190029F71500E5
:100E8000250195F875018102C005010980A1018540
:100E9000021601002603001A81002A8300751095AE
:100EA000018100C0050C0901A1018503160100267E
:100EB0009C021A01002A9C02751095018100C00550
:100EC000010902A1010901A100050919012905155E
:100ED00000250195057501810295017503810105C4
:100EE00001093009311581257F95027508810609B0
:100EF000381581257F950175088106050C0A380291
:100F00001581257F950175088106C0C00501090678
:100F1000A101050719E029E71500250195087501CC
:100F200081029501750881010508190129059505BA
:100F3000750191029501750391010507190029FFBB
:100F4000150026FF00950675088100C011241FBEFC
:100F5000CFEFDAE0DEBFCDBF04B603FE27C080913D
:100F60002D0290912E02A0912F02B0913002873075
:100F7000904BA740B04BD1F410922D0210922E024C
:100F800010922F021092300214BE84B7877F84BF64
:100F90000FB6F894A89580916000886180936000F6
:100FA000109260000FBEE0E0F8E3099511E0A0E0C8
:100FB000B1E0E0E4F9E502C005900D92A033B1077D
:100FC000D9F722E0A0E3B1E001C01D92AD32B20733
:100FD000E1F70E9489250C94592C0C940000DC0147
:100FE000603108F05CC0E62FF0E0E55AF34D129650
:100FF0008C910C940B2C882309F451C087E099E064
:101000000895882309F44BC08AE798E0089588235F
:1010100009F445C08DEE97E00895882309F43FC098
:1010200080E697E008958823D1F183ED96E0089556
:101030008823A9F186E496E00895882381F189EB5D
:1010400095E00895882359F18CE295E0089588236E
:1010500031F18FE994E00895882309F182E194E069
:1010600008958823E1F081E893E008958823B9F09A
:1010700080EF92E00895882391F08FE592E0089543
:10108000882369F08EEC91E00895882341F08DE388
:1010900091E00895882319F08CEA90E0089590E09B
:1010A00080E008950895089581E00895089581E00D
:1010B00008950C9454080E9495172FEF84E39CE048
:1010C000215080409040E1F700C000000C94CC1FFC
:1010D000EF92FF920F931F93CF93DF937C01DC017C
:1010E0000D911C91119780916F01811143C012964F
:1010F0008C918823D1F1C8010E94181DC82F682F38
:10110000C8010E94C31CB8018C2F0E94D309EC01B6
:10111000B7010E945908882309F468C0B701CE01BD
:101120000E94DB0B882309F461C0CE33B0E7DB07F4
:1011300070F4C433E0E7DE0710F5C130F0E7DF07F5
:1011400009F45CC050F5C115D04709F44AC081E0EC
:101150008093320180933301C701DF91CF911F91BA
:101160000F91FF90EF900C945708C8010E94F01C5B
:10117000C82FC9CFC8010E94181DB801C6CFFE01F3
:10118000E553F047D70112968C91E930F10508F04C
:1011900040C0E559F34D0C940B2CCE018250904782
:1011A0004397A8F6F70182818823B1F20E94DA1EE4
:1011B000811102C00E94B91E0E94F71E90E0909318
:1011C0001F0280931E02FE01E350F04780911E0231
:1011D0008160E231F10508F047C0EC58F34D0C9402
:1011E0000B2CF701828181110E945B0880E0DF9166
:1011F000CF911F910F91FF90EF900895D701129614
:101200008C91882399F38091DF0181608093DF01C5
:10121000EDCF882359F30E941E10E8CF882331F3C5
:101220000E941410E3CF882309F30E94F10EDECF51
:101230008823E1F20E94090FD9CF8823B9F20E94D6
:10124000280FD4CF882391F20E94400FCFCF88235C
:1012500069F20E94580FCACF882341F20E94700F92
:10126000C5CF80911E02826080931E0280911E0273
:101270000E94FB1E0E949517B9CF80911E028460C8
:10128000F3CF80911E028860EFCF80911E028061B3
:10129000EBCF80911E028062E7CF80911E028064B6
:1012A000E3CF80911E028068DFCF80911E028C60A8
:1012B000DBCF80911E028E7FD7CF80911E028D7F63
:1012C000D3CF80911E028B7FCFCF80911E02877F6C
:1012D000CBCF80911E028F7EC7CF80911E028F7D63
:1012E000C3CF80911E028F7BBFCF80911E028F776C
:1012F000BBCF80911E02837FB7CF90911E02892FB2
:1013000097FB87F98058B0CF882361F010923201A3
:101310000E94781F909331018093300182E00E94F7
:10132000FA1464CF8091320181110FC08091300195
:10133000909131010E94841F883C910530F486E22F
:101340000E94CF1386E20E94AB1482E00E94011536
:101350004DCF882351F0109233010E94781F909353
:1013600031018093300180E2DACF80913301811125
:101370000FC080913001909131010E94841F883C00
:10138000910530F487E20E94CF1387E20E94AB14EC
:1013900080E2DCCF0C942A0C0C942C0C0C94560894
:1013A0000C94CE09089594E0899FF0011124E70F71
:1013B000F11DEE0FFF1FEE0FFF1FE60FF11DEE0FE9
:1013C000FF1FEC56F64F859194910895FC01EE0FA6
:1013D000FF1FEC56F44F8591949108950E94D30914
:1013E0000E945F0B9C01811540E4940708F097C0B0
:1013F000211580E3380708F0FAC0203E310508F0D7
:1014000074C0203C310508F0E5C0283A310588F465
:10141000253A310508F0E2C02130310509F477C0E2
:10142000C9010497813A910508F471C030E020E0C9
:101430006EC0C901885A91094597C0F7283A31050D
:1014400009F4FEC0293A310509F4FDC02A3A3105F4
:1014500009F4FCC02B3A310509F4FBC02C3A3105E4
:1014600009F4FAC02B3B310509F4F9C02C3B3105D6
:1014700009F4F8C02D3A310509F4F7C0203B3105D5
:1014800009F4F6C02E3A310509F4F5C02F3A3105BA
:1014900009F4F4C0213B310509F4F3C0223B3105C6
:1014A00009F4F2C0233B310509F4F1C0243B3105B6
:1014B00009F4F0C0253B310509F4EFC0263B3105A6
:1014C00009F4EEC0273B310509F4EDC0283B310596
:1014D00009F4ECC0293B310509F4EBC02A3B310586
:1014E00009F4EAC020E034E412C0211590E2390783
:1014F00080F42F3F310509F050F4283E310538F0D3
:10150000C901805F91093065409708F08FCFC9010C
:101510000895C9019F700E94E6099C01F8CF8115CA
:10152000944508F041C0211583E5380708F06AC0EA
:10153000211592E5390738F5211541E5340708F002
:101540005CC0211580E5380708F454C0C90134E0B7
:10155000969587953A95E1F78370422F4695469583
:10156000437090E2499FA0011124582B822F837071
:1015700021E030E002C0220F331F8A95E2F7242BCE
:10158000352B3C68C4CFC9018370992741E050E0F6
:1015900002C0440F551F8A95E2F72695269580E2F2
:1015A000289F90011124EBCF211596E5390748F4C7
:1015B000922F882721153545C8F59C01246F306A84
:1015C000A6CFC90190563F708115904108F02ECFEB
:1015D00030629DCFC901805C91099DCF253A3105CC
:1015E00049F1263A310549F522E830E490CF332716
:1015F000306C8DCF3F70306A8ACF322F2227216F17
:10160000306A85CFC9018370992741E050E002C05C
:10161000440F551F8A95E2F72695269580E2289F6C
:1016200090011124242B352B3A6871CF88279F71A4
:101630009C01CECF21E830E46ACF23E830E467CFC5
:1016400022EE34E464CF29EE34E461CF2AEE34E4B0
:101650005ECF25EB34E45BCF26EB34E458CF23EBAD
:1016600034E455CF24EB34E452CF27EB34E44FCFAE
:101670002CEC34E44CCF2DEC34E449CF23E835E4B2
:1016800046CF2AE835E443CF22E935E440CF24E9C8
:1016900035E43DCF21E236E43ACF23E236E437CFDA
:1016A00024E236E434CF25E236E431CF26E236E4D4
:1016B0002ECF27E236E42BCF2AE236E428CF803E35
:1016C000910581F1C8F48133910509F462C048F4B1
:1016D0008932910509F456C08A32910509F460C037
:1016E000089589339105B9F082389105A1F08533C9
:1016F000910509F440C00895863E910561F138F4E2
:10170000823E9105B1F0833E9105E1F00895873E58
:10171000910551F1089520911E022370D9F080EEB9
:1017200090E0089520911E0220FF14C089E390E00C
:10173000089520911E0222FF0DC024FD09C083EEF2
:1017400090E0089520911E0222FD31C024FF02C0C6
:1017500090E080E0089520911E0223FFFBCF24FD3E
:10176000F7CF87EE90E0089520911E0223FFEECF81
:1017700086EE90E0089520911E0225FFEBCF89E2CE
:1017800090E0089520911E0225FFE4CF85E390E0CC
:10179000089520911E0226FFDDCF8AE290E0089591
:1017A00020911E0226FFD6CF81E390E0089582EEBD
:1017B00090E0089508950F931F93CF938C01FB0140
:1017C0008281811106C0C1E08C2FCF911F910F91B2
:1017D0000895C0914101C11125C00531104799F705
:1017E0000E94DA0B81E0809341010E94781F909360
:1017F000400180933F011092340110923601109203
:101800003501109238011092370110923A0110926E
:10181000390110923C0110923B0110923E0110924E
:101820003D01D2CF80913F01909140010E94841FE1
:10183000883C910540F680913401E82FF0E0EE0FEE
:10184000FF1FEB5CFE4F118300838F5F8093340199
:10185000C0E0BACF0C9452080C945308CF93DF9396
:1018600085B7806885BF85B7806885BFA8E1B1E08E
:101870004CE151E0C1E0D0E08D91E82FE295EF70AE
:10188000F0E061A18F709E0101C0220F8A95EAF7F6
:10189000922F9095962391A382A1822B82A34A171F
:1018A0005B0751F7A4E1B1E048E151E0C1E0D0E0CD
:1018B0008D91E82FE295EF70F0E061A18F709E01AD
:1018C00001C0220F8A95EAF7922F9095962391A353
:1018D00082A1822B82A34A175B0751F7109246011F
:1018E0001092420110924701109243011092480158
:1018F000109244011092490110924501DF91CF915D
:101900000C94CA096F927F928F929F92AF92BF926E
:10191000CF92DF92EF92FF920F931F93CF93DF93BB
:1019200032E4632E31E0732E48E1E42E41E0F42EE0
:1019300001E010E0DD24D394E301C9903E01DE0113
:101940001E92F70181917F01E82FE295EF70F0E0A0
:1019500091A18F70A80101C0440F8A95EAF7892FE1
:10196000842B81A382A1842E8094882182A380EA83
:101970008A95F1F764E171E090E080E0EB01399144
:10198000BE01A32EA2942FE0A222B12CE50128A132
:101990009C903F70580101C0AA0C3A95EAF7A22228
:1019A00020E031F4202F082E01C0220F0A94EAF71C
:1019B00029292C9301968430910501F781A1882172
:1019C00081A382A1482B42A38C91C81641F0D092EA
:1019D0004A010E94781F90934C0180934B01D6E4FA
:1019E0006D16D1E07D0609F0A7CF80914A018823CA
:1019F000D1F080914B0190914C010E94841F069779
:101A000090F0809142018093460180914301809340
:101A10004701809144018093480180914501809362
:101A2000490110924A010E94CC0981E0DF91CF91D7
:101A30001F910F91FF90EF90DF90CF90BF90AF90EC
:101A40009F908F907F906F900895E82FF0E0EA5B71
:101A5000FE4F8081089508959C01CB0165B1542FFC
:101A60005095562365B1462B6FB7F894820F931F9C
:101A70002817390711F46FBF0895F90171919F017B
:101A8000E8E045B9000000C077FF55B9770F0000C6
:101A900000C000C000C055B900C0EA9591F7E8CF7A
:101AA000FC0194B1942B94B99B01220F331F620F58
:101AB000731FCF010E942C0D87EC90E00197F1F786
:101AC00000C00000089542E00C94500DAF92BF9208
:101AD000CF92DF92EF92FF920F931F93CF93DF93FA
:101AE0007C01E901842F242F662309F43FC0C42E12
:101AF000D12C8FEF90E0861B9109489F8001499F70
:101B0000100D1124212F812F9927C81AD90A9CE37F
:101B1000A92EB12CC701B5010E94E32BFB01BC012A
:101B2000C69EC001C79E900DD69E900D1124B50192
:101B30000E94E32BE330F10509F443C080EFE8167F
:101B4000F10468F4E130F10591F13297A1F18CE3F1
:101B5000E816F10440F180E020E040E007C0E43006
:101B6000F10599F1842F861B3597A9F7E42FF0E052
:101B7000EF55F34F4491E22FF0E0EF55F34F94917E
:101B8000E82FF0E0EF55F34FE49149839883EA831F
:101B9000DF91CF911F910F91FF90EF90DF90CF9049
:101BA000BF90AF900895812F262F210FDFCF812F77
:101BB000242F461BDBCF862F810FE42F412F2E2FA2
:101BC000D5CFE42FE61B842FF9CF842F462F410F6A
:101BD000CDCF88E090E00C94192CAB01BC0188E0DB
:101BE00090E00C94372CCF93DF9300D000D0CDB78A
:101BF000DEB7ECE0F2E083E0808311828FEF828336
:101C0000838380910C0290910D02A0910E02B091FD
:101C10000F0289839A83AB83BC83BC01CD010F90F3
:101C20000F900F900F90DF91CF910C94ED0D80915C
:101C30000C0280FD0CC0109215021092140210923A
:101C4000160210921802109217021092190262E006
:101C500070E084E192E00C94630DE4E1F2E08183B2
:101C6000608342838483638345830C94170EEF92D1
:101C7000FF920F931F93CF93DF9300D00F92CDB7B6
:101C8000DEB7182FE92EF62E042F80910C029091CA
:101C90000D02A0910E02B0910F028093100290935A
:101CA0001102A0931202B093130280910C0280FFE4
:101CB0001FC09E012F5F3F4F812F9E2D0E94660DFA
:101CC0008091100210FB87F9809310021695809185
:101CD00011028078182BE0FA17F910931102F09294
:101CE0001202009313024B8169818A810E942D0E9A
:101CF0000F900F900F90DF91CF911F910F91FF9058
:101D0000EF9008950F931F93CF93DF9300D000D0EF
:101D10000F92CDB7DEB789839D83062F142F809154
:101D20000C0280FF54C0982F9E77923091F58981E4
:101D30009D810E94370E80910C02B981B0FB87F91A
:101D400080930C02B69580910D028078B82B8D811E
:101D500080FBB7F9B0930D0200930E0210930F02AF
:101D600080910C0290910D02A0910E02B0910F0291
:101D700089839A83AB83BC83BC01CD010F900F9004
:101D80000F900F900F90DF91CF911F910F910C94B6
:101D9000ED0D982F96959F732EE3290F2F73243006
:101DA00018F410910F02C7CF965C9F73993018F604
:101DB000881F8827881F90910D029D83990F982B6B
:101DC0009983AD81A7FBAA27A0F9AD83B4CF0F906B
:101DD0000F900F900F900F90DF91CF911F910F9167
:101DE0000895ECE0F2E02081221F2227221F30918B
:101DF0000D02432F440F842F822B37FB992790F934
:101E0000089668E671E00E94F72B438162810C948A
:101E1000820E20910C02221F2227221F30910D02D8
:101E2000432F440F842F822B37FB992790F988305A
:101E3000910540F4805A9E4F40910F0260910E022E
:101E40000C94820E089768E671E00E94F72BF4CF9D
:101E500060910E02683F90F4685F80910C02881FC9
:101E60008827881F90910D02292F220F97FB992711
:101E700090F940910F02822B0C94820E6FEFEDCF00
:101E800060910E02683090F0685080910C02881FBB
:101E90008827881F90910D02292F220F97FB9927E1
:101EA00090F940910F02822B0C94820E60E0EDCFEE
:101EB00040910F02483F90F4485F80910C02881FC8
:101EC0008827881F90910D02292F220F97FB9927B1
:101ED00090F960910E02822B0C94820E4FEFEDCFA1
:101EE00040910F02483090F0485080910C02881FBA
:101EF0008827881F90910D02292F220F97FB992781
:101F000090F960910E02822B0C94820E40E0EDCF8E
:101F1000CF93DF9300D000D0CDB7DEB790910C0205
:101F200090FF47C09178811132C0926090930C026B
:101F300080910C0290910D02A0910E02B0910F02BF
:101F400089839A83AB83BC83BC01CD010E94ED0DD4
:101F500080910C02982F9E77923009F510926201C1
:101F6000881F8827881F90910D02292F220F97FB29
:101F7000992790F940910F0260910E02822B0F90E9
:101F80000F900F900F90DF91CF910C94820E8931BA
:101F900010F09063CBCF8F73880F982BC7CF982FFB
:101FA0009695925C9F739631D8F691E0909362017A
:101FB000D7CF0F900F900F900F90DF91CF91089592
:101FC0008091DF0181608093DF0181E08093630174
:101FD0000E94DA1E811104C00E94B91E0E94F30DF6
:101FE0000E94E90D60930C0270930D0280930E0223
:101FF00090930F026E7761F40E94F30D0E94E90D39
:1020000060930C0270930D0280930E0290930F0266
:1020100081E08093620180910C0280FF04C086956C
:102020008F730C94880F089580910C0286958F739E
:102030008F5F893108F081E00C94880FCF93DF9394
:1020400000D000D0CDB7DEB790910C02892F8E7FE3
:1020500090FF816080930C0280910C0290910D02A0
:10206000A0910E02B0910F0289839A83AB83BC8347
:10207000BC01CD010E94ED0D80910C0280FF0AC0D1
:1020800086958F730F900F900F900F90DF91CF91E7
:102090000C94880F109262019FEFA0E7B2E091507C
:1020A000A040B040E1F700C000000F900F900F90EB
:1020B0000F90DF91CF910C94170ECF93C82F809182
:1020C0006001909161010E94841FEC2FF0E0E356C3
:1020D000F44FE491E817190609F010F50E94781FF3
:1020E0009093610180936001E0915F01F0E0EF5512
:1020F000F44F449180910C02881F8827881F90918B
:102100000D02292F220F97FB992790F960910E025B
:10211000822B0E94370E80915F018F5F80935F0159
:10212000CF910895CF93C82F80915D0190915E016A
:102130000E94841FEC2FF0E0E656F44FE491E8177C
:10214000190609F0E8F40E94781F90935E018093CD
:102150005D0140910F0260910E0280915B019091B0
:102160005C010E94370E80915B0190915C010196A9
:1021700068E671E00E94E32B90935C0180935B0121
:10218000CF910895FF920F931F93CF93DF93F82E73
:102190008091590190915A010E94841FEF2DE6957C
:1021A000F0E0E656F44FE491E817190609F0B0F5AF
:1021B0000E94781F90935A01809359010091570112
:1021C00010915801C8E6D1E0C801BE010E94E32B7E
:1021D00024E132E040910F0260910E020E94660DF0
:1021E000C8018C549F4FBE010E94E32B27E132E0CF
:1021F00040910F0260910E020E94660D0E94170E20
:102200008091570190915801F0FE0EC00196BE01D9
:102210000E94E32B9093580180935701DF91CF9157
:102220001F910F91FF9008950197F4CFAF92BF9245
:10223000CF92DF92EF92FF920F931F93CF93DF9392
:10224000C82F1FEF80FF11E080915501909156013A
:102250000E94841FC695EC2FF0E0E956F44FE491FC
:10226000E817190611F008F04FC00E94781F9093EC
:10227000560180935501C4E1D2E0D12CC12C27E056
:10228000A22EB12C198218821A8287E0E82EF12C36
:1022900000E080915401800F87FD8E5F082E000CB6
:1022A000990B8C159D05E9F420910F022E9DC0011C
:1022B0002F9D900D1124B5010E94F72B462F809180
:1022C0000C02881F8827881F90910D02592F550FE7
:1022D00097FB992790F99E0160910E02852B0E9431
:1022E000660D010F81E0E81AF10899F62396CA9469
:1022F000CD28A9F40E94170E809154011130B9F431
:10230000811111C010935401DF91CF911F910F9152
:10231000FF90EF90DF90CF90BF90AF900895CC24C6
:10232000C394D12CAFCF815080935401EDCF90E076
:10233000019681709927F8CFFF920F931F93CF9347
:10234000DF9300D000D000D0CDB7DEB7182F80913A
:102350005201909153010E94841FE12FF0E0EC564E
:10236000F44FE491E817190611F008F072C00E94CA
:10237000781F90935301809352011A8219821B8215
:1023800010E0F090000100915101802FF19E800D2E
:1023900011241816B4F080910C02881F8827881F1A
:1023A00090910D02592F550F97FB992790F99E0197
:1023B0002F5F3F4F40910F0260910E02852B0E94CC
:1023C000660D1F5F1730E9F61D821C821E8210E029
:1023D000802FF19E800D11241816B4F480910C0208
:1023E000881F8827881F90910D02592F550F97FB42
:1023F000992790F99E012C5F3F4F40910F02609109
:102400000E02852B0E94660D1F5F173009F78D8124
:10241000809315028C81809314028E818093160222
:102420008A81809318028981809317028B8180931F
:1024300019020E94170E9091000180915101913074
:10244000C1F48A3F94F489EF809351018FEF809318
:10245000000126960FB6F894DEBF0FBECDBFDF9108
:10246000CF911F910F91FF9008958150809351015A
:10247000F0CF89302CF088E08093510181E0E7CFE4
:102480008F5FF4CF80914F01909150010E94841F83
:10249000883E934038F10E94781F909350018093BA
:1024A0004F0180914D0190914E01019681709927C5
:1024B00090934E0180934D0124E132E040910F0250
:1024C00060910E0290E080E00E94660D27E132E00C
:1024D00040910F0260910E0290E080E00E94660D34
:1024E0000C94170E089580916201882371F18091F8
:1024F0000C0286958F739EE3980F9F73943018F4A7
:1025000082500C945D109AE3980F9F73933018F4E7
:1025100086500C94921097E3980F9F73963018F49E
:1025200089500C94C21091E3980F9F73963018F461
:102530008F500C9416119BE2980F9F73933018F4F0
:1025400085510C949C110C9442120895909369014A
:10255000809368010895E0916801F09169013097D6
:1025600021F00190F081E02D099480E00895E09140
:102570006801F0916901309721F00280F381E02D2C
:1025800009940895E0916801F0916901309721F074
:102590000480F581E02D0994089520916601309121
:1025A00067012817390771F09093670180936601DE
:1025B000E0916801F0916901309721F00680F78180
:1025C000E02D099408952091640130916501281748
:1025D000390771F09093650180936401E09168017F
:1025E000F0916901309721F00084F185E02D099484
:1025F000089508950C94F9120E946F1F0E942E0CEA
:102600000E9431200C94E00FBF92CF92DF92EF92A4
:10261000FF920F931F93CF93DF9300D000D00F92C0
:10262000CDB7DEB70E94820C8BE6C82E81E0D82E93
:1026300010E000E0E02E802F0E94250DB82EF6015C
:10264000F1906F01F81609F45BC08091DF0181FD04
:102650000E942B0D30E020E0FB244F2D50E0922F04
:10266000BA01022E02C0759567950A94E2F760FFE1
:1026700041C02983EA8221E030E0790102C0EE0CFA
:10268000FF1C9A95E2F72B2D30E02E213F2181E0AF
:10269000232B09F480E08B830E94781F8160782FC0
:1026A0009D838C8349815A816B818D810E94A61301
:1026B000F801E559FE4F80818E2580830E94DE223D
:1026C0000E94AB1290916A01891789F10E94AB12A6
:1026D00080936A010F900F900F900F900F90DF91F1
:1026E000CF911F910F91FF90EF90DF90CF90BF900F
:1026F0000C94D0092F5F3F4F2430310509F0AFCF44
:102700000F5F1F4F0430110509F094CF8FEF8983BD
:102710008A831B820E94781F8160782F9D838C831F
:1027200049815A816B818D810E94A613C7CF0F907A
:102730000F900F900F900F90DF91CF911F910F91FD
:10274000FF90EF90DF90CF90BF900895CF93DF93ED
:10275000CDB7DEB72B970FB6F894DEBF0FBECDBF57
:102760004F83588769877A878B871E8285E0FE01B1
:102770003796DE01119601900D928A95E1F7498115
:102780005A816B817C818D819E812B960FB6F89446
:10279000DEBF0FBECDBFDF91CF910C941D1A8823F1
:1027A00009F4D8C0823871F40E94AB1281FDD2C006
:1027B00089E30E94C01D0E948A1E89E30E94FD1DBC
:1027C0000C948A1E833859F40E94AB1280FDC2C05B
:1027D00083E50E94C01D0E948A1E83E5EFCF8438E6
:1027E00059F40E94AB1282FDB5C087E40E94C01D5F
:1027F0000E948A1E87E4E2CF9CEF980F913A18F46A
:102800000E94C01DDDCF90E2980F983050F4877081
:1028100091E001C0990F8A95EAF7892F0E94411E25
:10282000CFCF9BE5980F933070F4853A31F0863A1C
:1028300039F083E890E00C94CD1281E890E0FBCF72
:1028400082E890E0F8CF98E5980F953108F082C0C3
:10285000883A09F440C0893A09F440C08A3A09F438
:1028600040C08B3A09F440C08C3A09F440C08B3B1D
:1028700009F440C08C3B09F440C08D3A09F440C0D3
:10288000803B09F440C08E3A09F440C08F3A09F405
:1028900040C0813B09F440C0823B09F440C0833B07
:1028A00009F440C0843B09F440C0853B09F440C0B2
:1028B000863B09F440C0873B09F440C0883B09F4DB
:1028C00040C0893B09F440C08A3B09F440C090E015
:1028D00080E00C94E31282EE90E0FBCF89EE90E072
:1028E000F8CF8AEE90E0F5CF85EB90E0F2CF86EB63
:1028F00090E0EFCF83EB90E0ECCF84EB90E0E9CF7A
:1029000087EB90E0E6CF8CEC90E0E3CF8DEC90E0AD
:10291000E0CF83E891E0DDCF8AE891E0DACF82E989
:1029200091E0D7CF84E991E0D4CF81E292E0D1CF9A
:1029300083E292E0CECF84E292E0CBCF85E292E0D8
:10294000C8CF86E292E0C5CF87E292E0C2CF8AE2AA
:1029500092E0BFCF0895882309F44BC0823871F408
:102960000E94AB1281FF45C089E30E94C01D0E94F6
:102970008A1E89E30E94FD1D0C948A1E833859F437
:102980000E94AB1280FF35C083E50E94C01D0E94EB
:102990008A1E83E5EFCF843859F40E94AB1282FF80
:1029A00028C087E40E94C01D0E948A1E87E4E2CFEF
:1029B0009CEF980F913AF0F290E2980F983050F413
:1029C000877091E001C0990F8A95EAF7892F0E94DC
:1029D000471ED2CF9BE5980F933020F490E080E023
:1029E0000C94CD12885A853120F490E080E00C944C
:1029F000E3120895882321F00E94411E0C948A1E40
:102A00000895882321F00E94471E0C948A1E089581
:102A10008F929F92AF92BF92DF92EF92FF920F93AD
:102A20001F93CF93DF9300D000D00F92CDB7DEB7C6
:102A30007C016D837983FC01058102950F70128101
:102A400011110E94601E0E94B91DD82E882371F0BA
:102A50001123A1F08D81805E883080F082E00E9499
:102A6000A31D0E94B91D91E0D82ED926E981E295D7
:102A7000EF70F0E0EA57F34D0C940B2CD12CF6CF0D
:102A800009810F70F981F07F11F00295007F112309
:102A9000B1F0002361F08D81805E883018F02D81C7
:102AA000211109C0802F0E94411E0E948A1E8D8123
:102AB0000E94CF1315C0802F0E94521EF6CF8D8129
:102AC0000E94AB14002361F08D81805E883018F085
:102AD0003D81311129C0802F0E94471E0E948A1E0D
:102AE000DD2009F4D3C10E94961D80FDCFC1F701FE
:102AF00012820E94901D0E94DB1BC7010E94571783
:102B00000E94901D0F900F900F900F900F90DF91EB
:102B1000CF911F910F91FF90EF90DF90BF90AF90FA
:102B20009F908F900C94FD1B802F0E94581ED6CF33
:102B300049814F70B42E5981507F503219F0B294B0
:102B400080EFB8228D81882369F0813029F111232B
:102B500069F1002359F0F701858180FFA8CF8F70BC
:102B6000858304C0112361F0011104C08B2D0E94E4
:102B7000FA14B6CF8B2D0130D1F70E94741EB0CF5E
:102B8000011106C00E94771E8B2D0E940115A8CF4F
:102B9000013009F4A5CFF6CF112321F0063008F05B
:102BA0009FCFE4CF053008F09BCFEECF002361F339
:102BB0008D810E94AB1494CF898186958695837010
:102BC00069F0813009F08CCF8D819981937011115A
:102BD00002C090E080E00E94E31282CF8D81998153
:102BE0009370111102C090E080E00E94CD1278CF66
:102BF0008D81112329F00E94EC210E94D32270CFF5
:102C00000E945422FACF8981837009F05FC01111AC
:102C100067CF2D81229526952770220F220F8D8157
:102C20008F7090E0B0E0A0E04C015D01022E04C086
:102C3000880C991CAA1CBB1C0A94D2F7FD8160E089
:102C400070E0CB01F4FF0FC06FE070E080E090E037
:102C500004C0660F771F881F991F2A95D2F76095C9
:102C600070958095909529812695269523702D83C2
:102C70002230B1F0233019F19B01AC012829392908
:102C80004A295B2929833A834B835C833D8169818F
:102C90007A818B819C813130B1F00E94681B20CFFA
:102CA0009B01AC01282939294A295B2929833A83C8
:102CB0004B835C83CA01B9010E94921B11CF0E9411
:102CC000681BC501B4010E943E1B0ACF86951123E3
:102CD00011F089818170882309F402CF2D8122951A
:102CE00026952770220F220F8D818F7090E0B0E023
:102CF000A0E04C015D01022E04C0880C991CAA1CA6
:102D0000BB1C0A94D2F73D8160E070E0CB0134FF38
:102D10000FC06FE070E080E090E004C0660F771FA6
:102D2000881F991F2A95D2F7609570958095909588
:102D300049814695469543704D834230B1F043300A
:102D400019F19B01AC01282939294A295B292983DA
:102D50003A834B835C833D8169817A818B819C813D
:102D60003130B1F00E946E1CBBCE9B01AC01282912
:102D700039294A295B2929833A834B835C83CA0119
:102D8000B9010E94981CACCE0E946E1CC501B40112
:102D90000E94441CA5CE3D81323F09F447C080F417
:102DA000303F79F1313FD9F1832F805E8031D0F00F
:102DB000112309F456C001117ACE89818F7133C075
:102DC0004D81433FD1F1443F99F7112309F43FC0AE
:102DD00089818F7189830E94DB1B63E089810E9456
:102DE0009A1D7ECE5D815F705D8389818F71112315
:102DF00021F00E94DB1B8D81BACE0E94FD1B8D81CC
:102E0000C4CE112341F0053008F06ACE89818F715C
:102E10000E94221C65CE063008F062CEF7CF898171
:102E20008F71112339F00E94DB1B5ACE89818F717B
:102E30001123C9F30E94FD1B53CE112329F0898170
:102E40008F710E94C61B4CCE0E94BC1B49CE81E0F4
:102E50000E94A31D023008F443CE82E00E94A31D0D
:102E60003FCE0111A5CE89818F71E4CF49814F708A
:102E70006D81C7010E94EF070E94B71A31CE4981C8
:102E80004F706D81C7010E94D2092ACE0F900F901A
:102E90000F900F900F90DF91CF911F910F91FF90A6
:102EA000EF90DF90BF90AF909F908F9008950F9319
:102EB0001F93CF93DF93EC018B819C81892B29F0A9
:102EC0008881998189238F3F29F4DF91CF911F91C8
:102ED0000F910895CE010E9468088823B1F368819C
:102EE00079818A810E94661D8C010E94C21C0E9409
:102EF000331BB801CE01DF91CF911F910F910C943C
:102F000008150E94601E0E94711E0E94331E0E94BE
:102F10008A1E0E94C4230E94D32290E080E00E9477
:102F2000CD1290E080E00C94E3120E944F1E0C94AE
:102F300081170E945A1D282F892F82958F70903CEF
:102F400080F48A30B0F4843020F4823090F480E051
:102F500008958630E1F781E0203E88F0213FB9F7FF
:102F60000EC08C3011F08F3091F793FB882780F9D9
:102F7000089581E0203F39F018F4203E40F708958D
:102F8000243F29F7FCCF0895CF93DF9300D000D0E2
:102F90000F92CDB7DEB70F900F900F900F900F905C
:102FA000DF91CF910895CF93DF9300D000D000D070
:102FB000CDB7DEB726960FB6F894DEBF0FBECDBFF5
:102FC000DF91CF9108951F93CF93DF93E09170012C
:102FD00016E0809171018E1304C0DF91CF911F9193
:102FE0000895CE2FD0E01E9FF0011124EE58FE4F21
:102FF0004081518162817381848195810E94D317C0
:10300000FE013196E770E5CF4091A2015091A301F6
:103010006091A4017091A5018091A6019091A701F2
:103020000C94D3171F93CF93DF938091A701807FD8
:10303000C1F48091A4018823A1F080917001C09116
:1030400071016091A2017091A3014091A50150917D
:10305000A601D62FD723DA01A095B09516E0C813A4
:1030600004C0DF91CF911F91089590E04115510563
:1030700011F0DF3F31F401968770F1CF2A0F3B1F2B
:1030800017C0189FF001199FF00D1124EE58FE4F44
:1030900021812713F0CF20812613EDCF228121112A
:1030A000EACF238134812417350740F3241B350BE5
:1030B000283C310500F72091A7012F702061209353
:1030C000A70126E0289FF001299FF00D1124E9585F
:1030D000FE4F80818F708061808382EA91E00E9440
:1030E0005717DF91CF911F910C94E3179F92AF92E6
:1030F000BF92CF92DF92EF92FF920F931F93CF93E5
:10310000DF93CDB7DEB72B970FB6F894DEBF0FBEB7
:10311000CDBF8C0185E0F801DE01179601900D927C
:103120008A95E1F7D8014C9111965C91119712960E
:10313000EC9012978091A5019091A601009709F457
:103140006BC12091A2013091A301632F62236F3FD5
:1031500009F462C11396CD90DC909090A40199205F
:1031600009F4F8C0C816D90608F43FC0F601E81BF8
:10317000F90BCF01FF24F394883C910508F0F12C62
:1031800082EAA82E81E0B82E8091A701982F907F27
:10319000FF2009F4B7C0911180C0FE2C35132AC05E
:1031A000241328C0E11026C08F7080618093A7018E
:1031B0000E940418C5010E9457178091A701D801E9
:1031C00015968C938F2D2B960FB6F894DEBF0FBEFD
:1031D000CDBFDF91CF911F910F91FF90EF90DF90C6
:1031E000CF90BF90AF909F900895809590958C0D53
:1031F0009D1DC0CFCD2829F0842F85238F3F09F056
:1032000019C180E0B82FB170DB2EE09170012091E0
:10321000710136E080FD1CC0EE20A1F28091A70173
:1032200081608093A701F12CCDCF8E2F90E03E9F3F
:10323000F0011124EE58FE4F6181651306C06081D4
:10324000641303C062816E11E7CFFC013196E77011
:10325000E213EBCF4F8358878F8198850E945A1DC8
:10326000292F22952F70903260F0225F2F7022302C
:1032700078F49F7051F0F8019581907F31F4D12C52
:103280000AC09F7011F08823D1F3805E8830B8F3B4
:10329000C8010E945717FD2C95CF351306C0241383
:1032A00004C0D801EE2009F47BC04F8358878F817A
:1032B00098850E949917882309F4B8C0EE2009F474
:1032C000B5C08091A701803270F02091A2013091A9
:1032D000A3013A8329831B82DD82CC828E83CE01B7
:1032E00001960E94571786E0F801A2EAB1E001902A
:1032F0000D928A95E1F70E9412180E940418FF248B
:10330000F39460CF911113C07C2DDB86CA866E2D9D
:103310008B850E94C41782EA91E00E94571786E0CD
:10332000F50111928A95E9F70E9404184BCF3513E5
:10333000BCCF2413BACFE110B8CFD80115968C9327
:10334000C8010E94571786E0F50111928A95E9F7A6
:10335000F92C38CFC816D90688F1B601681B790B4D
:10336000CB01F12C883C910508F047C0FE2CEE20E3
:1033700009F45CC0351330C024132EC08091A7011E
:1033800080FD21C0982F907FF1F0D80115968C9385
:103390001597903F39F0982F907F905F8F70892B11
:1033A00015968C93C8010E94571786E0F801A2EA8F
:1033B000B1E001900D928A95E1F7B6CF8095909596
:1033C0008C0D9D1DCECF86E0F801A2EAB1E0019000
:1033D0000D928A95E1F7F6CE4F8358878F819885B5
:1033E0000E94991781117FCF8091A70181608093FE
:1033F000A701C8010E945717E5CE7C2DDB86CA863F
:103400006E2D8B850E94C41786E0E2EAF1E0DF01B1
:103410001D928A95E9F788CFEE2041F04F835887B7
:103420008F8198850E94991781115DCFC8010E94F4
:10343000571765CF81E08E25E5CE1F93CF93DF939D
:10344000CDB7DEB72C970FB6F894DEBF0FBECDBF59
:103450004F83588769877A878B879C87CE01079629
:103460000E947618882369F08A859B85892B39F01C
:103470004F815885842F85238F3F09F071C016E056
:103480005FC086E0FE013796DE01119601900D9235
:103490008A95E1F78A859B85892B89F388859F81A9
:1034A00089238F3F61F32091710130E0C9010196BA
:1034B00087709927409170014817190671F40E948E
:1034C0009517109271011092700186E0E2EAF1E026
:1034D000DF011D928A95E9F7D2CF96E0929FD00145
:1034E000939FB00D1124AE58BE4FFE01319601904E
:1034F0000D929A95E1F7809371010E94E317BFCF77
:10350000819FC00111248E589E4F0E9476188823F7
:10351000E9F0E09170011E9FF0011124EE58FE4F7A
:103520004081518162817381848195810E94D3178A
:103530008091700190E001968770992780937001C7
:1035400080917001909171018913DACF2C960FB69A
:10355000F894DEBF0FBECDBFDF91CF911F910895CC
:1035600069857A858B859C850E94D31788CFEF92D9
:10357000FF920F931F93CF93DF938C01892B89F0D8
:10358000F12CEE24E394E8012196F801849184372C
:1035900009F457C0A0F4823009F43EC048F48130E9
:1035A000D1F0DF91CF911F910F91FF90EF9008958F
:1035B0009CEF980F9037A8F70E94CF130AC0853769
:1035C00009F44CC09CE7980F903758F78F770E940A
:1035D000AB148E0116C00E5F1F4FFE01849190E266
:1035E000980F983060F48770FE2D01C0FF0F8A9508
:1035F000EAF78F2F0E94631E0E948A1E02C00E945B
:10360000CF138F2D815008F4BECFEFE9FFE0319743
:10361000F1F700C00000F6CF0E5F1F4FFE0184914E
:1036200090E2980F983050F48770FE2D01C0FF0F84
:103630008A95EAF78F2F0E94691EDECF0E94AB1495
:10364000E0CF0E5F1F4FFE01C491C150D0F28FE951
:103650009FE00197F1F700C00000F7CF0E5F1F4F0A
:10366000FE01F490CECF08956093B6017093B70138
:103670008093B8019093B9010C948117CF93DF9395
:1036800000D000D0CDB7DEB769837A838B839C836B
:103690008091B6019091B701A091B801B091B901A4
:1036A00029813A814B815C81822B932BA42BB52BF2
:1036B0008093B6019093B701A093B801B093B9017C
:1036C0000F900F900F900F90DF91CF910C94811776
:1036D000CF93DF9300D000D0CDB7DEB769837A8374
:1036E0008B839C838091B6019091B701A091B80122
:1036F000B091B90129813A814B815C818223932366
:10370000A423B5238093B6019093B701A093B80189
:10371000B093B9010F900F900F900F90DF91CF9160
:103720000C948117CF93DF9300D000D0CDB7DEB7D4
:1037300069837A838B839C838091B6019091B701D2
:10374000A091B801B091B90129813A814B815C8186
:1037500082279327A427B5278093B6019093B701BA
:10376000A093B801B093B9010F900F900F900F90F4
:10377000DF91CF910C9481171092B2011092B30196
:103780001092B4011092B5010C94811741E050E001
:1037900060E070E004C0440F551F661F771F8A95D4
:1037A000D2F74093B2015093B3016093B401709388
:1037B000B5010C948117282F81E090E0A0E0B0E0E3
:1037C00004C0880F991FAA1FBB1F2A95D2F74091EA
:1037D000B2015091B3016091B4017091B501842B95
:1037E000952BA62BB72B8093B2019093B301A09396
:1037F000B401B093B5010C94811741E050E060E052
:1038000070E004C0440F551F661F771F8A95D2F7DA
:1038100040955095609570958091B2019091B3015B
:10382000A091B401B091B50184239523A623B723B9
:103830008093B2019093B301A093B401B093B5010A
:103840000C948117282F81E090E0A0E0B0E004C044
:10385000880F991FAA1FBB1F2A95D2F74091B2016A
:103860005091B3016091B4017091B50184279527FF
:10387000A627B7278093B2019093B301A093B40118
:10388000B093B5010C948117CF93DF9300D000D093
:10389000CDB7DEB769837A838B839C838091B20135
:1038A0009091B301A091B401B091B50129813A8101
:1038B0004B815C81822B932BA42BB52B8093B2017F
:1038C0009093B301A093B401B093B5010F900F9002
:1038D0000F900F90DF91CF910C948117CF93DF93CE
:1038E00000D000D0CDB7DEB769837A838B839C8309
:1038F0008091B2019091B301A091B401B091B50152
:1039000029813A814B815C8182239323A423B523AF
:103910008093B2019093B301A093B401B093B50129
:103920000F900F900F900F90DF91CF910C94811713
:10393000CF93DF9300D000D0CDB7DEB769837A8311
:103940008B839C838091B2019091B301A091B401CB
:10395000B091B50129813A814B815C8182279327FF
:10396000A427B5278093B2019093B301A093B4012B
:10397000B093B5010F900F900F900F90DF91CF9102
:103980000C9481170895E92FEE0FEE0FE80F8E2F9C
:10399000877041E001C0440F8A95EAF7E695E69505
:1039A000E69585E0E89FF0011124E855FE4F30E0F0
:1039B00020E070E05191DF011197CB01022E02C08F
:1039C000969587950A94E2F78170819585278423DF
:1039D00085278C932F5F3F4F2530310559F7089588
:1039E000E92FEE0FEE0FE80F9E2F9770E695E69504
:1039F000E69585E0E89FF0011124E855FE4F50E080
:103A000040E080E0219130E0092E02C036952795F4
:103A10000A94E2F721703327042E01C0220F0A9482
:103A2000EAF7822B4F5F5F4F4530510559F70895F4
:103A3000BF92CF92DF92EF92FF920F931F93CF939B
:103A4000DF938C01C090B201D090B301E090B4013B
:103A5000F090B5018091B6019091B701A091B801A5
:103A6000B091B901C82AD92AEA2AFB2ACFE1D0E0CD
:103A7000BC2ED701C6010C2E04C0B695A79597950C
:103A800087950A94D2F780FD0EC0219788F7B12C54
:103A90008B2DDF91CF911F910F91FF90EF90DF90D1
:103AA000CF90BF900895B8018C2F0E94EE09019726
:103AB00061F3EECFCF93DF93D82FC92F0E94181D4B
:103AC0006D2F7C2FDF91CF910C94EE091F93CF9334
:103AD000DF93162FD72F90916F01992339F0862FFE
:103AE000972FDF91CF911F910C945A1D882391F04D
:103AF000862F972F0E94181DC82F682F812F9D2F6A
:103B00000E94C31C612F7D2F8C2FDF91CF911F91BD
:103B10000C94EE09862F972F0E94F01CC82FF2CF2D
:103B20008091BA0185958595859508958091BA0112
:103B30008770089598E0899F90011124622B60930B
:103B4000BA010C94DB1B9091BA0180958923809374
:103B5000BA01282F277061F4282F082E000C330B90
:103B60009217130629F08595859585950C94FD1B74
:103B700008959091BA01977081E009F480E008956A
:103B8000909113019923E1F090911E0297FF18C0C4
:103B9000E82FE695E695E695EF3139F120910101A0
:103BA00030910201E20FF32FF11D877021E030E028
:103BB00001C0220F8A95EAF78181822B81830895C3
:103BC0002091010130910201F90132969FEF40E00E
:103BD0005191851751F09F3F19F4511101C0942F55
:103BE0004F5F4E31A9F79F3F09F40895290F311D0A
:103BF00097FD3A95F90182830895909113019923D5
:103C000001F190911E0297FF1CC0E82FE695E69502
:103C1000E695EF3139F12091010130910201E20F77
:103C2000F32FF11D877021E030E0A90102C0440F9D
:103C3000551F8A95E2F7CA01809591818923818376
:103C400008952091010130910201F9013296205E20
:103C50003F4F9191891303C0DF0111971C92E21726
:103C6000F307B9F7089581E090E0E0910101F09148
:103C70000201E80FF91F1082019680329105A9F721
:103C800008959091DE01982B9093DE010895982F6E
:103C900090958091DE0189238093DE010895109232
:103CA000DE0108959091DD01982B9093DD01089538
:103CB000982F90958091DD0189238093DD010895EF
:103CC0001092DD0108959091DC01982B9093DC0116
:103CD0000895982F90958091DC0189238093DC01D1
:103CE00008951092DC0108958093BB01089510920D
:103CF000BB0108952091010130910201F901319633
:103D0000205E3F4F80E0919191118F5FE217F307A2
:103D1000D1F70895E0910101F09102018091DE0157
:103D20008083E0910101F091020180819091DD0199
:103D3000892B8083E0910101F091020180819091B3
:103D4000DC01892B80839091BB01992361F0E09184
:103D50000101F09102018081892B80830E947A1EEB
:103D600081111092BB0180910101909102010C948C
:103D7000B7126DEE7EEF90E080E00E94432C60E091
:103D800082E090E00E94252C60E083E090E00E94B9
:103D9000252C60E084E090E00E94252C60E085E026
:103DA00090E00E94252C40E050E0BA0188E090E0CD
:103DB0000C94372C90E080E00E941F2C9C0181E045
:103DC0002D3E3E4F09F080E0089582E090E00C9493
:103DD000112C682F82E090E00C94252C83E090E079
:103DE0000C94112C682F83E090E00C94252C84E037
:103DF00090E00C94112C682F84E090E00C94252C1A
:103E000080912402843039F11092E00188E190E041
:103E100020E40FB6F894A895809360000FBE20931D
:103E2000600080E00E94D00983B7817F846083BFF7
:103E300083B7816083BF7894889583B78E7F83BF73
:103E40000FB6F894A8958091600088618093600017
:103E5000109260000FBE089508950895CF930E94B8
:103E60002C1F0E94820C0E942D1FC0E08C2F0E94EC
:103E7000250D811105C0CF5FC430C1F7CF910895E2
:103E800081E0FCCF0E9495170E94AB120C94D009E0
:103E90001F921FB61F9211248F939F93AF93BF93CE
:103EA0008091E001811113C080911A0290911B0250
:103EB000A0911C02B0911D024196A11DB11D8093DD
:103EC0001A0290931B02A0931C02B0931D02BF9193
:103ED000AF919F918F911F901FBE1F90189582E008
:103EE00084BD93E095BD9AEF97BD80936E000895D1
:103EF0002FB7F89480911A0290911B02A0911C0296
:103F0000B0911D022FBF0895CF92DF92EF92FF92E2
:103F10009C014FB7F89480911A0290911B02A091D6
:103F20001C02B0911D024FBF6C017D01EE24FF24E5
:103F3000A90170E060E0C416D506E606F70638F081
:103F4000821B930BFF90EF90DF90CF900895019725
:103F5000F7CF1F921FB61F9211248F939F93AF9399
:103F6000BF9380911A0290911B02A0911C02B09104
:103F70001D020196A11DB11D80931A0290931B0290
:103F8000A0931C02B0931D02BF91AF919F918F919E
:103F90001F901FBE1F9018950E94BA27F8942FEF0C
:103FA00087EA91E6215080409040E1F700C0000090
:103FB00087E090EBDC0180932D0290932E02A0937A
:103FC0002F02B093300288E19CE00FB6F894A895D8
:103FD000809360000FBE90936000FFCFCF92DF927E
:103FE000EF92FF920F931F93CF93C0E0E82EF12C36
:103FF0008C2F0E94250D10E000E0C82ED12CC601A8
:10400000002E02C0959587950A94E2F780FF11C0B3
:10401000602F7C2F80E00E94D309E816F90649F44E
:1040200081E0CF911F910F91FF90EF90DF90CF90A3
:1040300008950F5F1F4F0430110509F7CF5FC4309B
:10404000B9F680E0EECFCF93C82F8CE20E94EE1F2E
:10405000882321F08C2FCF910C94EE1F80E0CF911C
:104060000895CF93DF9300D000D0CDB7DEB70E9484
:10407000DA1E811102C00E94B91E95E6998308C01C
:104080000E94820C8FE39CE90197F1F700C00000C9
:10409000A981A150A983A111F3CF89E20E94232015
:1040A000811110C18AE20E94232081110E94B91E51
:1040B00085E00E94232081110E94CC1F0E94E51EF2
:1040C0008093DF0187E00E942320882371F08BE139
:1040D0000E942320882309F4D1C09091DF01892F09
:1040E0008D7F91FF82608093DF018091DF010E94CC
:1040F000E91E0E94F71E90E090931F0280931E021B
:1041000080EE0E942320882341F090911E02892F87
:104110008E7F90FF816080931E0289E30E9423209E
:10412000882341F090911E02892F8D7F91FF82603C
:1041300080931E0282EE0E942320882341F09091FA
:104140001E02892F8B7F92FF846080931E0286EE71
:104150000E942320882341F090911E02892F877F9F
:1041600093FF886080931E0283EE0E9423208823A1
:1041700041F090911E02892F8F7E94FF8061809381
:104180001E0285E30E942320882341F090911E02A5
:10419000892F8F7D95FF806280931E0281E30E94AC
:1041A0002320882341F090911E02892F8F7B96FF58
:1041B000806480931E0281E10E942320882341F0C5
:1041C00090911E02892F97FB87F9805880931E02D9
:1041D00080911E020E94FB1E87E20E942320898399
:1041E0008EE10E942320882319F0B981B260B9833F
:1041F0008FE10E942320882319F0298124602983DC
:1042000080E20E942320882319F0398138603983A5
:1042100081E20E942320882319F04981406149836B
:1042200082E20E942320882319F059815062598329
:1042300083E20E942320882319F089818064898386
:1042400084E20E9423208823B1F1998190689983A8
:1042500089810E94F21E3981232F30E050E040E036
:1042600029833A834B835C83CA01B9010F900F9075
:104270000F900F90DF91CF910C94341B8EE00E9431
:104280002320882339F09091DF01892F8B7F92FFC3
:10429000846029CF80E10E9423209091DF01882350
:1042A00029F0892F877F93FF88601DCF892F8E7F0C
:1042B00090FF816018CFA981A111CACF0E94EE1E84
:1042C000282FCBCF0F900F900F900F90DF91CF91B1
:1042D00008958091E30180FF12C06091060185E09E
:1042E000689FB0011124759567957595679560383D
:1042F0007105A8F561157105A1F1862F089581FF5B
:1043000009C06091060185E0689FB0011124759590
:104310006795EDCF6091060182FD0AC08091E401AE
:104320008823D1F09091050160910601891728F04A
:1043300085E0689FB0011124DACF869FB001112477
:1043400085E0869F9001879F300D1124692F70E0D2
:10435000C9010E94F72BCBCF65E070E0CECF8FE78D
:10436000089581E008958091E30180FF0CC0609181
:10437000040170E0759567957595679561157105F0
:1043800049F1862F089581FF06C06091040170E015
:1043900075956795F3CF6091040182FD0BC09091F4
:1043A000E4019923A1F06091030180910401961723
:1043B00038F0682F70E06038710500F38FE70895DA
:1043C000899FC001112470E00E94F72BF4CF61E0B7
:1043D00070E0D7CF81E00895803F31F40E946921D9
:1043E00081958093E7010895813F19F40E94692126
:1043F000F8CF823F31F40E94692181958093E601D4
:104400000895833F19F40E946921F8CF893F29F468
:104410000E94B3218093E80108958A3F21F40E940D
:10442000B3218195F7CF8B3F31F40E94B321819561
:104430008093E90108958C3F19F40E94B321F8CFCD
:10444000843F31F48091E50181608093E501089516
:10445000853F21F48091E5018260F7CF863F21F40A
:104460008091E5018460F1CF873F21F48091E501DF
:104470008860EBCF883F21F48091E5018061E5CF32
:104480008D3F31F48091E30181608093E3010895D1
:104490008E3F21F48091E3018260F7CF8F3FB9F71F
:1044A0008091E3018460F1CF9091E601803F41F477
:1044B0008091E70187FD1092E701992371F008953B
:1044C000813F29F48091E7011816ACF3F6CF823FC3
:1044D00081F497FFF2CF1092E6018091E70190916D
:1044E000E801892B9091E901892B49F71092E401A9
:1044F0000895833F19F4191674F3DFCF893F39F417
:104500008091E8011816CCF61092E801D6CF8A3FC8
:1045100029F48091E80187FFD0CFF6CF8B3F39F4A3
:104520008091E90187FFC9CF1092E901C6CF8C3F86
:1045300029F48091E9011816BCF3BFCF843F31F410
:104540008091E5018E7F8093E501B7CF853F21F40F
:104550008091E5018D7FF7CF863F21F48091E501C1
:104560008B7FF1CF873F21F48091E501877FEBCFEF
:10457000883F21F48091E5018F7EE5CF8D3F31F4B6
:104580008091E3018E7F8093E30197CF8E3F21F4EA
:104590008091E3018D7FF7CF8F3F09F08ECF80911F
:1045A000E3018B7FF0CF85EE91E00E94C2120E9462
:1045B000781F9093E2018093E10108951F93CF93B8
:1045C000DF9300D000D000D0CDB7DEB78091E101FD
:1045D0009091E2010E94841FAC018091E40120913E
:1045E000070130E0811106C0209108019AE0299F5F
:1045F000900111244217530788F02091E601A09101
:10460000E701A9831091E801B091E901BE8321116E
:104610000FC09A2F912B9B2B09F0B2C026960FB694
:10462000F894DEBF0FBECDBFDF91CF911F910895EB
:104630008F3F19F08F5F8093E401121624F40E94DB
:1046400069218093E6018091E60187FF05C00E9401
:10465000692181958093E6012981121624F40E9434
:1046600069218093E7018091E70187FF05C00E94DF
:10467000692181958093E7018091E601882309F4FF
:1046800055C03091E7013D83332309F44FC0282FF3
:10469000880F330B440B550B29833A834B835C8380
:1046A000CA01B9010E94EA2A23E333E343E35FE34B
:1046B00069837A838B839C8369817A818B819C81D6
:1046C0000E944E2B69837A838B839C8369817A81D4
:1046D0008B819C810E94B22A6093E6018D81082E15
:1046E000000C990BAA0BBB0B89839A83AB83BC8309
:1046F000BC01CD010E94EA2A23E333E343E35FE3F5
:1047000069837A838B839C8369817A818B819C8185
:104710000E944E2B69837A838B839C8369817A8183
:104720008B819C810E94B22A6093E701111624F4C8
:104730000E94B3218093E8018091E80187FF05C0C2
:104740000E94B32181958093E8019E81191624F47B
:104750000E94B3218093E9018091E90187FF05C0A0
:104760000E94B32181958093E90126960FB6F894B3
:10477000DEBF0FBECDBFDF91CF911F910C94D3222E
:104780008F3F09F057CF68CF85E0E5EEF1E0DF011C
:104790001D928A95E9F71092E4011092E3010895C1
:1047A00080910A020895CF93DF9300D00F92CDB786
:1047B000DEB720912402243019F523E029838A836F
:1047C0009B832093E9008FEF9091E800815095FD45
:1047D00006C095ED9A95F1F700008111F5CF809113
:1047E000E80085FF0DC050E040E063E070E0CE01DE
:1047F00001960E9432268091E8008E778093E8002F
:104800000F900F900F90DF91CF910895CF93DF938A
:1048100000D00F92CDB7DEB79C0180912402843086
:1048200031F582E08983205831093B832A8383E074
:104830008093E9008FEF9091E800815095FD06C0CC
:1048400095ED9A95F1F700008111F5CF8091E80080
:1048500085FF0DC050E040E063E070E0CE010196BE
:104860000E9432268091E8008E778093E8000F90B6
:104870000F900F90DF91CF91089520912402243062
:10488000F1F422E02093E9002FEF3091E80021506D
:1048900035FD06C035ED3A95F1F700002111F5CF51
:1048A0002091E80025FF0BC050E040E065E070E09B
:1048B0000E9432268091E8008E778093E800089568
:1048C000CF93DF93D82FC92F809124028430F1F445
:1048D000909113019923E9F090911E0297FF19C05E
:1048E0008093E9008FEF9091E800815095FD06C01C
:1048F00095E19A95F1F700008111F5CF8091E800DC
:1049000050E040E060E270E085FD1AC0DF91CF9199
:10491000089581E08093E9008FEF9091E800815045
:1049200095FD06C095ED9A95F1F700008111F5CF40
:104930008091E80085FFEACF50E040E068E070E059
:104940008D2F9C2F0E9432268091E8008E778093D5
:10495000E80080E2ED2FFC2FAAEEB1E001900D926D
:104960008A95E1F7D3CF80912302811109C00E947B
:10497000BA270E9417288091E20084608093E200A9
:104980000895109223020895089508950C94421FEB
:1049900042E061EC81E00E94362742E061EC82E077
:1049A0000E94362742E061EC83E00E94362742E213
:1049B00061EC84E00C94362780912602893089F1DD
:1049C00048F4823009F494C0833009F44FC0813038
:1049D00041F008958A3009F47BC08B3009F461C03E
:1049E000089580912502813A09F03FC08091E80046
:1049F000877F8093E8008091290290912A02892B79
:104A000061F460E28AEE91E070E00E94812680917C
:104A1000E8008B778093E800089560E090E080E004
:104A2000F3CF80912502813201F580912902909186
:104A30002A02009711F00397C1F48091E800877F64
:104A40008093E8008091E80082FF0BC08091F10024
:104A500080930A028091E8008B778093E8000C94A1
:104A60006A27809124028111EDCF0895809125025B
:104A7000813AD9F78091290290912A02892BA9F7CE
:104A80008091E800877F8093E8008091E80080FFB4
:104A9000FCCF809113018093F1008091E8008E7724
:104AA000DCCF80912502813201F78091290290911B
:104AB0002A02892BD1F68091E800877F8093E80055
:104AC0000E946A2780912702809313010C94951706
:104AD00080912502813249F68091E800877F80939A
:104AE000E8000E946A278091280280930B020895B3
:104AF00080912502813A09F0B8CF8091E800877F44
:104B00008093E8008091E80080FFFCCF80910B0249
:104B1000C2CF84B7877F84BF0FB6F894A8958091E1
:104B20006000886180936000109260000FBE80E892
:104B300080936100109261000E94FA120E94BA27CD
:104B40000E9417288091E20084608093E2007894AC
:104B50000E94972A0E94FC1289E091E00E94A6120E
:104B600080912402853029F00E9404130E94731260
:104B7000F7CF0E94001F80912202882389F30E94B0
:104B80002E1F882369F30E941C26EACF9C01DA01BC
:104B9000892F992783309105C1F068F48130910500
:104BA00009F445C0029761F48DE690E021ED3DE007
:104BB0002D933C93089581329105E1F0829739F16C
:104BC00090E080E030E020E0F3CFC9019927213068
:104BD00059F08230910559F0EDECFDE0892B81F719
:104BE000849190E09F01E4CFE5EBFDE0F9CFE1EAAD
:104BF000FDE0F6CF643020F7E62FF0E0EE0FFF1F68
:104C0000E85DFE4F2081318189E090E0D1CF6430B2
:104C1000B8F670E0FB01EE0FFF1FE05EFE4F208153
:104C20003181645E7E4FFB01808190E0C1CF82E1E3
:104C300090E02EE33EE0BCCF80E189BD82E189BDFA
:104C400009B400FEFDCF8091D8008F7D8093D800FD
:104C50008091E00082608093E0008091E00081FD1F
:104C6000FCCF0895AF92BF92CF92DF92FF920F9345
:104C70001F93CF93DF936C01EB018A010E94892778
:104C8000F82E811123C00115110539F0F80180813A
:104C90009181C81BD90BC80ED91EB12CA12C20970D
:104CA000A9F08091E80085FD22C08091E8008E7710
:104CB0008093E80001151105A1F0F8018081918130
:104CC000A80EB91EB182A08285E0F82E8F2DDF914B
:104CD000CF911F910F91FF90DF90CF90BF90AF9039
:104CE00008950E9489278823D1F2F82EEFCFF6018C
:104CF00081916F018093F1002197FFEFAF1ABF0AF6
:104D0000CECFFC01CB0120912B0230912C02261733
:104D1000370790F0009729F42091E8002E77209330
:104D2000E80040E0009751F4411108C08091E8008C
:104D300082FF31C080E00895C901F3CF20912402A1
:104D40002223A9F12530A9F12091E80023FD2DC0EF
:104D50002091E80022FDEACF2091E80020FFE2CF79
:104D60003091F3002091F200009719F028303105BE
:104D700058F041E02830310509F040E02091E8008A
:104D80002E772093E800CECF41914093F100019718
:104D90002F5F3F4FE9CF80912402882341F0853077
:104DA00041F08091E80083FFC1CF81E0089582E067
:104DB000089583E00895FC01CB0120912B023091EE
:104DC0002C022617370790F0009729F42091E8006D
:104DD0002E772093E80040E0009751F4411108C07D
:104DE0008091E80082FF32C080E00895C901F3CFCE
:104DF000209124022223B1F12530B1F12091E80065
:104E000023FD2EC02091E80022FDEACF2091E8008A
:104E100020FFE2CF3091F3002091F200009719F0CB
:104E20002830310558F041E02830310509F040E0E4
:104E30002091E8002E772093E800CECF4491409354
:104E4000F100319601972F5F3F4FE8CF8091240208
:104E5000882341F0853041F08091E80083FFC0CF86
:104E600081E0089582E0089583E00895982F9730B7
:104E700028F08F708093E90081E008959093E90015
:104E8000242F762F50E0981731F07091EC0020918C
:104E9000ED005091F00021FD02C09F5FE8CF3091FE
:104EA000EB003E7F3093EB003091ED003D7F30937F
:104EB000ED003091EB0031603093EB007093EC002B
:104EC0002093ED005093F0002091EE0027FDE5CFF8
:104ED00080E008958091250287FF13C08091E8004B
:104EE00082FF06C08091E8008B778093E80004C0C1
:104EF000809124028111F2CF0895809124028823A9
:104F0000D9F38091E80080FFF8CF8091E8008E7798
:104F1000ECCF2091E4003091E50095E6A9012091C5
:104F2000EC00822F817020FF06C08091E80080FF96
:104F300006C080E008952091E80022FD1AC080910B
:104F40002402882389F0853089F08091EB0085FD6B
:104F50000FC02091E4003091E50042175307F9F2A9
:104F60009150E1F684E0089582E0089583E0089589
:104F700081E008950E9428280E943028E0EEF0E0A9
:104F8000808181608083E8EDF0E080818F7780838D
:104F900019BCA7EDB0E08C918E7F8C9380818F7EC1
:104FA00080831092230208950F931F93CF93DF9372
:104FB0000E9428280E943028C8EDD0E088818F7791
:104FC000888388818068888388818F7D888319BCE5
:104FD00010922402109220021092220210922102BA
:104FE00000EE10E0F80180818B7F808388818160F2
:104FF000888342E060E080E00E943627E1EEF0E046
:1050000080818E7F8083E2EEF0E08081816080830A
:10501000808188608083F80180818E7F8083888191
:1050200080618883DF91CF911F910F910895E8ED02
:10503000F0E080818F7E8083E7EDF0E08081816009
:10504000808384E082BF81E0809323020C94D42784
:10505000E8EDF0E080818E7F80831092E200089579
:105060001092DA001092E10008951F920F920FB68D
:105070000F9211242F933F934F935F936F937F93DE
:105080008F939F93AF93BF93EF93FF938091E10032
:1050900082FF0BC08091E20082FF07C08091E10097
:1050A0008B7F8093E1000E94962A8091DA0080FF36
:1050B00019C08091D80080FF15C08091DA008E7FE2
:1050C0008093DA008091D90080FF94C080E189BD8F
:1050D00082E189BD09B400FEFDCF81E08093240206
:1050E0000E94B3248091E10080FF19C08091E2000A
:1050F00080FF15C08091E2008E7F8093E200809156
:10510000E20080618093E2008091D8008062809309
:10511000D80019BC85E0809324020E94C5248091A8
:10512000E10084FF29C08091E20084FF25C080E176
:1051300089BD82E189BD09B400FEFDCF8091D80010
:105140008F7D8093D8008091E1008F7E8093E10075
:105150008091E2008F7E8093E2008091E200816086
:105160008093E20080912002882309F449C084E002
:10517000809324020E94C6248091E10083FF29C00D
:105180008091E20083FF25C08091E100877F8093BA
:10519000E10082E080932402109220028091E100DD
:1051A0008E7F8093E1008091E2008E7F8093E20009
:1051B0008091E20080618093E20042E060E080E064
:1051C0000E9436278091F00088608093F0000E9452
:1051D000C424FF91EF91BF91AF919F918F917F91E7
:1051E0006F915F914F913F912F910F900FBE0F9054
:1051F0001F90189519BC109224020E94C12472CFEE
:105200008091E30087FD02C081E0B2CF83E0B0CFA0
:105210001F920F920FB60F9211242F933F934F932B
:105220005F936F937F938F939F93AF93BF93CF932E
:10523000DF93EF93FF93D091E900DF708091EC0052
:10524000C82FC17080FDC0E81092E9008091F00085
:10525000877F8093F00078940E944C291092E90097
:105260008091F00088608093F000CD2BCF70C093C8
:10527000E900FF91EF91DF91CF91BF91AF919F91A5
:105280008F917F916F915F914F913F912F910F90EF
:105290000FBE0F901F9018951F93CF93DF93CDB73C
:1052A000DEB7AA970FB6F894DEBF0FBECDBF85E27A
:1052B00092E0FC0101962091F100208322E08D32E2
:1052C0009207B9F70E94DC248091E80083FF16C1A1
:1052D00080912502909126029A3008F00FC1E92FA3
:1052E000F0E0EA56F34D0C940B2C803881F08238B4
:1052F00009F004C1809129028F708093E9008091A8
:10530000EB0085FB882780F91092E90006C08091A8
:10531000210290912202911182609091E800977F82
:105320009093E8008093F1001092F1008091E800E2
:105330008E77E0C0882309F4CEC0823009F0DEC049
:10534000809127028111D1C0809129028F7009F4C8
:10535000D5C08093E9002091EB0020FFC6C09330B8
:1053600031F48091EB0080628093EB00BEC090919D
:10537000EB0090619093EB0021E030E001C0220F40
:105380008A95EAF72093EA001092EA008091EB00F8
:105390008860EACF8111B2C0109127021F778091F7
:1053A000E3008078812B8093E3008091E800877F81
:1053B0008093E8000E946A278091E80080FFFCCF7C
:1053C0008091E30080688093E30082E0111183E024
:1053D0008093240293C08058823008F08FC080915F
:1053E0002702909128028C3D23E09207A1F583E0EB
:1053F0008A838AE289834FB7F894DE01139620E00E
:105400003EE051E2E32FF0E050935700E49120FF9B
:1054100003C0E295EF703F5FEF708E2F90E0EA30AF
:10542000C0F0C7968D939D932F5F243159F74FBFDE
:105430008091E800877F8093E8006AE270E0CE0107
:1054400001960E9481268091E8008B778093E80086
:1054500055C0C096E7CFAE014F5F5F4F6091290204
:105460000E94C625BC01892B09F448C08091E80040
:10547000877F8093E80089819A810E94DB26E3CFB1
:105480008038E1F58091E800877F8093E800809183
:1054900020028093F1004ACF811130C09091270201
:1054A000923060F58091E800877F8093E8009093C8
:1054B00020020E946A2780912002882311F084E054
:1054C00005C08091E30087FDFACF81E0809324023C
:1054D0000E94C82413C080912702813079F481E0B2
:1054E000933009F080E0809322021092E9008091CD
:1054F000E800877F8093E8000E946A278091E80097
:1055000083FF0AC08091E800877F8093E800809144
:10551000EB0080628093EB00AA960FB6F894DEBF92
:105520000FBECDBFDF91CF911F9108950895CF9306
:10553000809124028823A1F0C091E900CF7090915E
:10554000EC00892F817090FD80E8C82B1092E90053
:105550008091E80083FD0E944C29CF70C093E90040
:10556000CF9108950E94B92A6894B1110C94482BE8
:1055700008950E942D2B88F09F5798F0B92F9927F6
:10558000B751B0F0E1F0660F771F881F991F1AF02E
:10559000BA95C9F714C0B13091F00E94472BB1E021
:1055A00008950C94472B672F782F8827B85F39F020
:1055B000B93FCCF3869577956795B395D9F73EF4C7
:1055C00090958095709561957F4F8F4F9F4F08956F
:1055D000E89409C097FB3EF490958095709561958D
:1055E0007F4F8F4F9F4F9923A9F0F92F96E9BB2743
:1055F0009395F695879577956795B795F111F8CFBF
:10560000FAF4BB0F11F460FF1BC06F5F7F4F8F4F29
:105610009F4F16C0882311F096E911C0772321F01F
:105620009EE8872F762F05C0662371F096E8862FB7
:1056300070E060E02AF09A95660F771F881FDAF70E
:10564000880F9695879597F9089557FD9058440FC0
:10565000551F59F05F3F71F04795880F97FB991FD1
:1056600061F09F3F79F0879508951216130614068E
:10567000551FF2CF4695F1DF08C01616170618061B
:10568000991FF1CF86957105610508940895E894F6
:10569000BB2766277727CB0197F908950E94612BD6
:1056A0000C94D22B0E94C42B38F00E94CB2B20F0FC
:1056B000952311F00C94BB2B0C94C12B11240C944A
:1056C000482B0E94252B70F3959FC1F3950F50E056
:1056D000551F629FF001729FBB27F00DB11D639FA4
:1056E000AA27F00DB11DAA1F649F6627B00DA11D4A
:1056F000661F829F2227B00DA11D621F739FB00DF0
:10570000A11D621F839FA00D611D221F749F33275F
:10571000A00D611D231F849F600D211D822F762FF8
:105720006A2F11249F5750409AF0F1F088234AF0D5
:10573000EE0FFF1FBB1F661F771F881F9150504041
:10574000A9F79E3F510580F00C94BB2B0C94482B7D
:105750005F3FE4F3983ED4F3869577956795B795C8
:10576000F795E7959F5FC1F7FE2B880F911D9695E2
:10577000879597F9089597F99F6780E870E060E052
:1057800008959FEF80EC089500240A9416161706DA
:1057900018060906089500240A9412161306140622
:1057A00005060895092E0394000C11F4882352F085
:1057B000BB0F40F4BF2B11F460FF04C06F5F7F4F3D
:1057C0008F4F9F4F0895AA1BBB1B51E107C0AA1F13
:1057D000BB1FA617B70710F0A61BB70B881F991F92
:1057E0005A95A9F780959095BC01CD01089597FB36
:1057F000072E16F4009407D077FD09D00E94E32B02
:1058000007FC05D03EF4909581959F4F08957095C3
:1058100061957F4F0895EE0FFF1F0590F491E02DE5
:105820000994F999FECF92BD81BDF89A992780B568
:105830000895A6E1B0E044E050E00C944B2CA8E1C0
:10584000B0E042E050E00C944B2C262FF999FECFAB
:1058500092BD81BDF89A019700B4021639F01FBAC3
:1058600020BD0FB6F894FA9AF99A0FBE08950396E0
:10587000272F0E94262C0E94252C252F0E94262CA3
:10588000242F0C94262C0196272F0E94262C0C9452
:10589000252CDC01CB01FC01F999FECF06C0F2BD3D
:1058A000E1BDF89A319600B40D9241505040B8F7DE
:1058B0000895F894FFCFFB07010807080D081308A7
:1058C00018081D08220827082C08310836083B084C
:1058D000400845084A080E09130918091D0922093C
:1058E00027092C098409A90931093D0941094509FC
:1058F00049094D095109550959095D0961096509A8
:1059000069096D097109750979097D094015401505
:1059100098159815DC15F815701570150316701587
:10592000CB16CB163617701570153F1775299A29A7
:105930007E2A9A297E2ACA29EB297E2A402A4C2AC5
:10594000FFBC012808140A321ED02360243D24061F
:1059500024D3230191909466F4F5F6F7404D36393F
:105960000C0FBF0E890E500EE30DFC0D150E2E0E02
:00000001FF
