:100000000C94A6070C94ED070C94ED070C94ED07E7
:100010000C94ED070C94ED070C94ED070C94ED0790
:100020000C94ED070C94ED070C944A280C941D29B0
:100030000C945D1F0C94ED070C94ED070C94ED07E8
:100040000C94ED070C94ED070C94ED070C94ED0760
:100050000C94ED070C94BE1F0C94ED070C94ED0767
:100060000C94ED070C94ED070C94ED070C94ED0740
:100070000C94ED070C94ED070C94ED070C94ED0730
:100080000C94ED070C94ED070C94ED070C94ED0720
:100090000C94ED070C94ED070C94ED070C94ED0710
:1000A0000C94ED070C94ED070C94ED0701E301159A
:1000B000021502E374640113021301120212011A01
:1000C000021A010802080115021501160216010B99
:1000D000020B01080208010F020F010F020F012C91
:1000E000022C01E10134023474640122022202E193
:1000F00001160216011E021E0123022301E1012244
:10010000022202E10131023101160216011E021E15
:1001100001230223013702370113021301160216CD
:10012000011E021E012C022C011E021E01220222AF
:1001300001E10134023402E1012802280001E30157
:1001400015021502E3746401130213011202120175
:100150001A021A01080208011502150116021601F9
:100160000B020B01080208010F020F010F020F0121
:100170002C022C01E10134023474640122022202B7
:10018000E101160216011E021E0123022301E101F4
:1001900022022202E10131023101160216011E0281
:1001A0001E01230223013702370113021301160235
:1001B00016011E021E012C022C011E021E0121022C
:1001C0002101E10134023402E1012802280001E3A7
:1001D0000115021502E374640113021301120212E5
:1001E000011A021A01080208011502150116021669
:1001F000010B020B01080208010F020F010F020F91
:10020000012C022C01E10134023474640122022227
:1002100002E101160216011E021E0123022301E162
:100220000122022202E10131023101160216011EF1
:10023000021E0123022301370237011302130116A4
:100240000216011E021E012C022C011E021E01209C
:10025000022001E10134023402E1012802280001F8
:10026000E30115021502E374640113021301120283
:1002700012011A021A0108020801150215011602DC
:1002800016010B020B01080208010F020F010F02F9
:100290000F012C022C01E1013402347464012202AA
:1002A0002202E101160216011E021E012302230191
:1002B000E10122022202E10131023101160216019E
:1002C0001E021E012302230137023701130213010C
:1002D000160216011E021E012C022C011E021E0116
:1002E0001F021F01E10134023402E101280228004B
:1002F00001E30115021502E37464011302130112F4
:100300000212011A021A010802080115021501164B
:100310000216010B020B01080208010F020F010F68
:10032000020F012C022C01E1013402347464012219
:10033000022202E101160216011E021E01230223FF
:1003400001E10122022202E101310231011602160D
:10035000011E021E0123022301370237011302137B
:1003600001160216011E021E012C022C011E021E85
:10037000011E021E01E10134023402E101280228BB
:100380000001E30115021502E37464011302130175
:10039000120212011A021A010802080115021501BF
:1003A000160216010B020B01080208010F020F01D1
:1003B0000F020F012C022C01E1013402347464019C
:1003C00022022202E101160216011E021E01230270
:1003D0002301E10122022202E10131023101160270
:1003E00016011E021E0123022301370237011302E8
:1003F0001301160216011E021E012C022C011E0200
:100400001E0127022701E10134023402E101280222
:10041000280001E30115021502E3746401130213BD
:1004200001120212011A021A01080208011502152E
:1004300001160216010B020B01080208010F020F40
:10044000010F020F012C022C01E10134023474640B
:100450000122022202E101160216011E021E0123E0
:10046000022301E10122022202E1013102310116DF
:100470000216011E021E0123022301370237011357
:10048000021301160216011E021E012C022C012667
:10049000022601E10134023402E1012802280001B0
:1004A000E30115021502E374640113021301120241
:1004B00012011A021A01080208011502150116029A
:1004C00016010B020B01080208010F020F010F02B7
:1004D0000F012C022C01E101340234746401220268
:1004E0002202E101160216011E021E01230223014F
:1004F000E10122022202E10131023101160216015C
:100500001E021E01230223013702370113021301C9
:10051000160216011E021E012C022C0125022501C5
:10052000E10134023402E1012802280001E301154F
:10053000021502E374640113021301120212011A7C
:10054000021A010802080115021501160216010B14
:10055000020B01080208010F020F010F020F012C0C
:10056000022C01E10134023474640122022202E10E
:1005700001160216011E021E0123022301E10122BF
:10058000022202E10131023101160216011E021E91
:100590000123022301370237011302130116021649
:1005A000011E021E012C022C0124022401E101344F
:1005B000023402E1012802280001E30115021502BC
:1005C000E374640113021301120212011A021A01E8
:1005D0000802080115021501160216010B020B0193
:1005E000080208010F020F010F020F012C022C015B
:1005F000E10134023474640122022202E101160294
:1006000016011E021E0123022301E1012202220221
:10061000E10131023101160216011E021E01230200
:1006200023013702370113021301160216011E02BD
:100630001E012C022C0123022301E10134023402A9
:10064000E1012802280001E30115021502E37464A8
:100650000113021301120212011A021A0108020800
:100660000115021501160216010B020B0108020802
:10067000010F020F010F020F012C022C01E10134C6
:10068000023474640122022202E101160216011EE4
:10069000021E0123022301E10122022202E10131B3
:1006A000023101160216011E021E01230223013728
:1006B00002370113021301160216011E021E012C3D
:1006C000022C0122022201E10134023402E101285C
:1006D00002280001E30115021502E374640113020C
:1006E0001301120212011A021A010802080115026E
:1006F0001501160216010B020B01080208010F0278
:100700000F010F020F012C022C01E101340234749D
:10071000640122022202E101160216011E021E01DC
:1007200023022301E10122022202E101310231010F
:10073000160216011E021E01230223013702370191
:1007400013021301160216011E021E012C022C01B7
:1007500021022101E10134023402E10128022800D2
:1007600001E30115021502E374640113021301127F
:100770000212011A021A01080208011502150116D7
:100780000216010B020B01080208010F020F010FF4
:10079000020F012C022C01E10134023474640122A5
:1007A000022202E101160216011E021E012302238B
:1007B00001E10122022202E1013102310116021699
:1007C000011E021E01230223013702370113021307
:1007D00001160216011E021E012C022C012002200D
:1007E00001E10134023402E1012802280001E301A1
:1007F00015021502E37464011302130112021201BF
:100800001A021A0108020801150215011602160142
:100810000B020B01080208010F020F010F020F016A
:100820002C022C01E1013402347464012202220200
:10083000E101160216011E021E0123022301E1013D
:1008400022022202E10131023101160216011E02CA
:100850001E0123022301370237011302130116027E
:1008600016011E021E012C022C011F021F01E101B4
:1008700034023402E1012802280001E301150215C7
:1008800002E374640113021301120212011A021A24
:10089000010802080115021501160216010B020BD0
:1008A00001080208010F020F010F020F012C022C98
:1008B00001E10134023474640122022202E10116D2
:1008C0000216011E021E0123022301E1012202225F
:1008D00002E10131023101160216011E021E01233E
:1008E0000223013702370113021301160216011EFB
:1008F000021E012C022C011E021E01E101340234F1
:1009000002E1012802280001E30115021502E37447
:10091000640113021301120212011A021A010802E1
:10092000080115021501160216010B020B0108023F
:1009300008010F020F010F020F012C022C01E1012F
:1009400034023474640122022202E101160216010B
:100950001E021E0123022301E10122022202E10103
:1009600031023101160216011E021E01230223016B
:100970003702370113021301160216011E021E016F
:100980002C022C0127022701E10134023402E1018B
:1009900028022800003001300230033004300530D6
:1009A00006300730083009300A300B300C300D307B
:1009B0000E300F30000000000000000000000000BA
:1009C0000000000000000000000000000000000027
:1009D0000000000000000000000000000000000017
:1009E0000000000000000000000000000000000007
:1009F00000000000000000000000000000000000F7
:100A000000000000000000000000000000000000E6
:100A100000000000000000000000000000000000D6
:100A200000000000000000000000000000000000C6
:100A300000000000000000000000000000000000B6
:100A400000000000000000000000000000000000A6
:100A50000000000000000000000000000000000096
:100A60000000000000000000000000000000000086
:100A70000000000000000000000000000000000076
:100A80000000000000000000000000000000000066
:100A90000000000000000000000000000000000056
:100AA0000000000000000000000000000000000046
:100AB0000000000000000000000000000000000036
:100AC0000000000000000000000000000000000026
:100AD0000000000000000000000000000000000016
:100AE0000000000000000000000000000000000006
:100AF00000000000000000000000000000000000F6
:100B000000000000000000000000000000000000E5
:100B100000000000000000000000000000000000D5
:100B200000000000000000000000000000000000C5
:100B300000000000000000000000000000000000B5
:100B400000000000000000000000000000000000A5
:100B50000000000000000000000000000000000095
:100B60000000000000000000000000000000000085
:100B70000000000000000000000000000000000075
:100B80000000000000000000000000000000000065
:100B900000000000643214643214783C1E1E140AF3
:100BA000050000000001010102020304050506071B
:100BB000090A0B0C0E0F1112141517191B1D1F21FA
:100BC0002325282A2C2F313436393B3E41434649D0
:100BD0004C4F5255585A5D6164676A6D70737679EF
:100BE0007C7F8386898C8F9295989B9EA2A5A7AACD
:100BF000ADB0B3B6B9BCBEC1C4C6C9CBCED0D3D5D7
:100C0000D7DADCDEE0E2E4E6E8EAEBEDEEF0F1F381
:100C1000F4F5F6F8F9FAFAFBFCFDFDFEFEFEFFFF27
:100C2000FFFFFFFFFFFEFEFEFDFDFCFBFAFAF9F8F9
:100C3000F6F5F4F3F1F0EEEDEBEAE8E6E4E2E0DEFF
:100C4000DCDAD7D5D3D0CECBC9C6C4C1BEBCB9B609
:100C5000B3B0ADAAA7A5A29E9B9895928F8C8986CA
:100C600083807C797673706D6A6764615D5A5855CC
:100C7000524F4C494643413E3B393634312F2C2AA2
:100C8000282523211F1D1B1917151412110F0E0CD7
:100C90000B0A090706050504030202010101000011
:100CA0000000000000000101010101010101010239
:100CB000020202020202020203030303030303030C
:100CC00004040404040405050505050606060606D5
:100CD00007070707080808080909090A0A0A0A0B8A
:100CE0000B0B0C0C0C0D0D0D0E0E0F0F0F10101129
:100CF00011111212131314141515161617171818AC
:100D000019191A1A1B1C1C1D1D1E1F1F2020212211
:100D1000222324252526272728292A2B2B2C2D2E54
:100D20002F2F30313233343536363738393A3B3C71
:100D30003D3E3F4041424344464748494A4B4C4D63
:100D40004F50515253555657585A5B5C5E5F606224
:100D500063646667696A6C6D6E70717374767879B6
:100D60007B7C7E8081838486888A8B8D8F91929410
:100D700096989A9B9D9FA1A3A5A7A9ABADAFB1B330
:100D8000B5B7B9BBBDBFC1C4C6C8CACCCFD1D3D615
:100D9000D8DADCDFE1E4E6E8EBEDF0F2F5F7FAFCB7
:100DA000FF12036B006500790062006F0061007242
:100DB0000064000000160371006D006B0062007596
:100DC0000069006C00640065007200000004030903
:100DD0000409026D00040100A0FA090400000103E7
:100DE00001010009211101000122400007058103D2
:100DF00008000A0904010001030102000921110190
:100E00000001224D000705820308000A09040200C0
:100E1000010300000009211101000122360007052D
:100E2000830308000A0904030001030000000921EC
:100E3000110100012239000705840320000112017D
:100E4000100100000008EDFE6060010001020001D9
:100E500005010906A101050719E029E7150025018B
:100E60009508750181020508190129059505750187
:100E700091029501750391010507190029F71500E5
:100E8000250195F875018102C005010980A1018540
:100E9000021601002603001A81002A8300751095AE
:100EA000018100C0050C0901A1018503160100267E
:100EB0009C021A01002A9C02751095018100C00550
:100EC000010902A1010901A100050919012905155E
:100ED00000250195057501810295017503810105C4
:100EE00001093009311581257F95027508810609B0
:100EF000381581257F950175088106050C0A380291
:100F00001581257F950175088106C0C00501090678
:100F1000A101050719E029E71500250195087501CC
:100F200081029501750881010508190129059505BA
:100F3000750191029501750391010507190029FFBB
:100F4000150026FF00950675088100C011241FBEFC
:100F5000CFEFDAE0DEBFCDBF04B603FE27C080913D
:100F6000330290913402A0913502B091360287305D
:100F7000904BA740B04BD1F4109233021092340240
:100F8000109235021092360214BE84B7877F84BF58
:100F90000FB6F894A89580916000886180936000F6
:100FA000109260000FBEE0E0F8E3099511E0A0E0C8
:100FB000B1E0EAE6F9E502C005900D92A033B10771
:100FC000D9F722E0A0E3B1E001C01D92A333B2073C
:100FD000E1F70E949E250C946E2C0C940000DC011D
:100FE000603108F05CC0E62FF0E0E059F34D129656
:100FF0008C910C94202C882309F451C087E099E04F
:101000000895882309F44BC08AE798E0089588235F
:1010100009F445C08DEE97E00895882309F43FC098
:1010200080E697E008958823D1F183ED96E0089556
:101030008823A9F186E496E00895882381F189EB5D
:1010400095E00895882359F18CE295E0089588236E
:1010500031F18FE994E00895882309F182E194E069
:1010600008958823E1F081E893E008958823B9F09A
:1010700080EF92E00895882391F08FE592E0089543
:10108000882369F08EEC91E00895882341F08DE388
:1010900091E00895882319F08CEA90E0089590E09B
:1010A00080E008950895089581E00895089581E00D
:1010B00008950C9454080E94AA172FEF84E39CE033
:1010C000215080409040E1F700C000000C94E11FE7
:1010D000EF92FF920F931F93CF93DF937C01DC017C
:1010E0000D911C91119780916F01811143C012964F
:1010F0008C918823D1F1C8010E942D1DC82F682F23
:10110000C8010E94D81CB8018C2F0E94D309EC01A1
:10111000B7010E945908882309F468C0B701CE01BD
:101120000E94DB0B882309F461C0CE33B0E7DB07F4
:1011300070F4C433E0E7DE0710F5C130F0E7DF07F5
:1011400009F45CC050F5C115D04709F44AC081E0EC
:101150008093320180933301C701DF91CF911F91BA
:101160000F91FF90EF900C945708C8010E94051D45
:10117000C82FC9CFC8010E942D1DB801C6CFFE01DE
:10118000E553F047D70112968C91E930F10508F04C
:1011900040C0E058F34D0C94202CCE018250904773
:1011A0004397A8F6F70182818823B1F20E94EF1ECF
:1011B000811102C00E94CE1E0E940C1F90E09093ED
:1011C000250280932402FE01E350F047809124021F
:1011D0008160E231F10508F047C0E757F34D0C9408
:1011E000202CF701828181110E945B0880E0DF9151
:1011F000CF911F910F91FF90EF900895D701129614
:101200008C91882399F38091DF0181608093DF01C5
:10121000EDCF882359F30E941F10E8CF882331F3C4
:101220000E941510E3CF882309F30E94F20EDECF4F
:101230008823E1F20E940A0FD9CF8823B9F20E94D5
:10124000290FD4CF882391F20E94410FCFCF88235A
:1012500069F20E94590FCACF882341F20E94710F90
:10126000C5CF809124028260809324028091240261
:101270000E94101F0E94AA17B9CF80912402846097
:10128000F3CF809124028860EFCF809124028061A7
:10129000EBCF809124028062E7CF809124028064AA
:1012A000E3CF809124028068DFCF809124028C609C
:1012B000DBCF809124028E7FD7CF809124028D7F57
:1012C000D3CF809124028B7FCFCF80912402877F60
:1012D000CBCF809124028F7EC7CF809124028F7D57
:1012E000C3CF809124028F7BBFCF809124028F7760
:1012F000BBCF80912402837FB7CF90912402892FA6
:1013000097FB87F98058B0CF882361F010923201A3
:101310000E948D1F909331018093300182E00E94E2
:101320000F1564CF8091320181110FC0809130017F
:10133000909131010E94991F883C910530F486E21A
:101340000E94E41386E20E94C01482E00E941615F7
:101350004DCF882351F0109233010E948D1F90933E
:1013600031018093300180E2DACF80913301811125
:101370000FC080913001909131010E94991F883CEB
:10138000910530F487E20E94E41387E20E94C014C2
:1013900080E2DCCF0C942A0C0C942C0C0C94560894
:1013A0000C94CE09089594E0899FF0011124E70F71
:1013B000F11DEE0FFF1FEE0FFF1FE60FF11DEE0FE9
:1013C000FF1FEC56F64F859194910895FC01EE0FA6
:1013D000FF1FEC56F44F8591949108950E94D30914
:1013E0000E945F0B9C01811540E4940708F097C0B0
:1013F000211580E3380708F0FAC0203E310508F0D7
:1014000074C0203C310508F0E5C0283A310588F465
:10141000253A310508F0E2C02130310509F477C0E2
:10142000C9010497813A910508F471C030E020E0C9
:101430006EC0C901885A91094597C0F7283A31050D
:1014400009F4FEC0293A310509F4FDC02A3A3105F4
:1014500009F4FCC02B3A310509F4FBC02C3A3105E4
:1014600009F4FAC02B3B310509F4F9C02C3B3105D6
:1014700009F4F8C02D3A310509F4F7C0203B3105D5
:1014800009F4F6C02E3A310509F4F5C02F3A3105BA
:1014900009F4F4C0213B310509F4F3C0223B3105C6
:1014A00009F4F2C0233B310509F4F1C0243B3105B6
:1014B00009F4F0C0253B310509F4EFC0263B3105A6
:1014C00009F4EEC0273B310509F4EDC0283B310596
:1014D00009F4ECC0293B310509F4EBC02A3B310586
:1014E00009F4EAC020E034E412C0211590E2390783
:1014F00080F42F3F310509F050F4283E310538F0D3
:10150000C901805F91093065409708F08FCFC9010C
:101510000895C9019F700E94E6099C01F8CF8115CA
:10152000944508F041C0211583E5380708F06AC0EA
:10153000211592E5390738F5211541E5340708F002
:101540005CC0211580E5380708F454C0C90134E0B7
:10155000969587953A95E1F78370422F4695469583
:10156000437090E2499FA0011124582B822F837071
:1015700021E030E002C0220F331F8A95E2F7242BCE
:10158000352B3C68C4CFC9018370992741E050E0F6
:1015900002C0440F551F8A95E2F72695269580E2F2
:1015A000289F90011124EBCF211596E5390748F4C7
:1015B000922F882721153545C8F59C01246F306A84
:1015C000A6CFC90190563F708115904108F02ECFEB
:1015D00030629DCFC901805C91099DCF253A3105CC
:1015E00049F1263A310549F522E830E490CF332716
:1015F000306C8DCF3F70306A8ACF322F2227216F17
:10160000306A85CFC9018370992741E050E002C05C
:10161000440F551F8A95E2F72695269580E2289F6C
:1016200090011124242B352B3A6871CF88279F71A4
:101630009C01CECF21E830E46ACF23E830E467CFC5
:1016400022EE34E464CF29EE34E461CF2AEE34E4B0
:101650005ECF25EB34E45BCF26EB34E458CF23EBAD
:1016600034E455CF24EB34E452CF27EB34E44FCFAE
:101670002CEC34E44CCF2DEC34E449CF23E835E4B2
:1016800046CF2AE835E443CF22E935E440CF24E9C8
:1016900035E43DCF21E236E43ACF23E236E437CFDA
:1016A00024E236E434CF25E236E431CF26E236E4D4
:1016B0002ECF27E236E42BCF2AE236E428CF803E35
:1016C000910581F1C8F48133910509F462C048F4B1
:1016D0008932910509F456C08A32910509F460C037
:1016E000089589339105B9F082389105A1F08533C9
:1016F000910509F440C00895863E910561F138F4E2
:10170000823E9105B1F0833E9105E1F00895873E58
:10171000910551F10895209124022370D9F080EEB3
:1017200090E008952091240220FF14C089E390E006
:1017300008952091240222FF0DC024FD09C083EEEC
:1017400090E008952091240222FD31C024FF02C0C0
:1017500090E080E008952091240223FFFBCF24FD38
:10176000F7CF87EE90E008952091240223FFEECF7B
:1017700086EE90E008952091240225FFEBCF89E2C8
:1017800090E008952091240225FFE4CF85E390E0C6
:1017900008952091240226FFDDCF8AE290E008958B
:1017A0002091240226FFD6CF81E390E0089582EEB7
:1017B00090E0089508950F931F93CF938C01FB0140
:1017C0008281811106C0C1E08C2FCF911F910F91B2
:1017D0000895C0914101C11125C00531104799F705
:1017E0000E94DA0B81E0809341010E948D1F90934B
:1017F000400180933F011092340110923601109203
:101800003501109238011092370110923A0110926E
:10181000390110923C0110923B0110923E0110924E
:101820003D01D2CF80913F01909140010E94991FCC
:10183000883C910540F680913401E82FF0E0EE0FEE
:10184000FF1FEB5CFE4F118300838F5F8093340199
:10185000C0E0BACF0C9452080C945308CF93DF9396
:1018600085B7806885BF85B7806885BFA8E1B1E08E
:101870004CE151E0C1E0D0E08D91E82FE295EF70AE
:10188000F0E061A18F709E0101C0220F8A95EAF7F6
:10189000922F9095962391A382A1822B82A34A171F
:1018A0005B0751F7A4E1B1E048E151E0C1E0D0E0CD
:1018B0008D91E82FE295EF70F0E061A18F709E01AD
:1018C00001C0220F8A95EAF7922F9095962391A353
:1018D00082A1822B82A34A175B0751F7109246011F
:1018E0001092420110924701109243011092480158
:1018F000109244011092490110924501DF91CF915D
:101900000C94CA096F927F928F929F92AF92BF926E
:10191000CF92DF92EF92FF920F931F93CF93DF93BB
:1019200032E4632E31E0732E48E1E42E41E0F42EE0
:1019300001E010E0DD24D394E301C9903E01DE0113
:101940001E92F70181917F01E82FE295EF70F0E0A0
:1019500091A18F70A80101C0440F8A95EAF7892FE1
:10196000842B81A382A1842E8094882182A380EA83
:101970008A95F1F764E171E090E080E0EB01399144
:10198000BE01A32EA2942FE0A222B12CE50128A132
:101990009C903F70580101C0AA0C3A95EAF7A22228
:1019A00020E031F4202F082E01C0220F0A94EAF71C
:1019B00029292C9301968430910501F781A1882172
:1019C00081A382A1482B42A38C91C81641F0D092EA
:1019D0004A010E948D1F90934C0180934B01D6E4E5
:1019E0006D16D1E07D0609F0A7CF80914A018823CA
:1019F000D1F080914B0190914C010E94991F069764
:101A000090F0809142018093460180914301809340
:101A10004701809144018093480180914501809362
:101A2000490110924A010E94CC0981E0DF91CF91D7
:101A30001F910F91FF90EF90DF90CF90BF90AF90EC
:101A40009F908F907F906F900895E82FF0E0EA5B71
:101A5000FE4F8081089508959C01CB0165B1542FFC
:101A60005095562365B1462B6FB7F894820F931F9C
:101A70002817390711F46FBF0895F90171919F017B
:101A8000E8E045B9000000C077FF55B9770F0000C6
:101A900000C000C000C055B900C0EA9591F7E8CF7A
:101AA000FC0194B1942B94B99B01220F331F620F58
:101AB000731FCF010E942C0D87EC90E00197F1F786
:101AC00000C00000089542E00C94500DAF92BF9208
:101AD000CF92DF92EF92FF920F931F93CF93DF93FA
:101AE0007C01E901842F242F662309F43FC0C42E12
:101AF000D12C8FEF90E0861B9109489F8001499F70
:101B0000100D1124212F812F9927C81AD90A9CE37F
:101B1000A92EB12CC701B5010E94F82BFB01BC0115
:101B2000C69EC001C79E900DD69E900D1124B50192
:101B30000E94F82BE330F10509F443C080EFE8166A
:101B4000F10468F4E130F10591F13297A1F18CE3F1
:101B5000E816F10440F180E020E040E007C0E43006
:101B6000F10599F1842F861B3597A9F7E42FF0E052
:101B7000EF55F34F4491E22FF0E0EF55F34F94917E
:101B8000E82FF0E0EF55F34FE49149839883EA831F
:101B9000DF91CF911F910F91FF90EF90DF90CF9049
:101BA000BF90AF900895812F262F210FDFCF812F77
:101BB000242F461BDBCF862F810FE42F412F2E2FA2
:101BC000D5CFE42FE61B842FF9CF842F462F410F6A
:101BD000CDCF88E090E00C942E2CAB01BC0188E0C6
:101BE00090E00C944C2CCF93DF9300D000D0CDB775
:101BF000DEB7ECE0F2E083E0808311828FEF828336
:101C0000838380910C0290910D02A0910E02B091FD
:101C10000F0289839A83AB83BC83BC01CD010F90F3
:101C20000F900F900F90DF91CF910C94ED0D80915C
:101C30000C02E4E1F2E080FF06C064E070E084E1C1
:101C400092E00C94630D118210821282339682E02E
:101C5000E032F807C1F7F1CFE4E1F2E0818360837D
:101C60004283339692E0E032F907C1F70C94170EE5
:101C7000EF92FF920F931F93CF93DF9300D00F92B9
:101C8000CDB7DEB7182FE92EF62E042F80910C0267
:101C900090910D02A0910E02B0910F02809310025C
:101CA00090931102A0931202B093130280910C0240
:101CB00080FF1FC09E012F5F3F4F812F9E2D0E94EE
:101CC000660D8091100210FB87F980931002169523
:101CD000809111028078182BE0FA17F91093110205
:101CE000F0921202009313024B8169818A810E9453
:101CF0002C0E0F900F900F90DF91CF911F910F91AD
:101D0000FF90EF9008950F931F93CF93DF9300D030
:101D100000D00F92CDB7DEB789839D83062F142F95
:101D200080910C0280FF54C0982F9E77923091F5DD
:101D300089819D810E94380E80910C02B981B0FB8F
:101D400087F980930C02B69580910D028078B82BAC
:101D50008D8180FBB7F9B0930D0200930E021093B2
:101D60000F0280910C0290910D02A0910E02B09191
:101D70000F0289839A83AB83BC83BC01CD010F9092
:101D80000F900F900F900F90DF91CF911F910F91B7
:101D90000C94ED0D982F96959F732EE3290F2F73BA
:101DA000243018F410910F02C7CF965C9F739930BE
:101DB00018F6881F8827881F90910D029D83990F20
:101DC000982B9983AD81A7FBAA27A0F9AD83B4CF47
:101DD0000F900F900F900F900F90DF91CF911F9168
:101DE0000F910895ECE0F2E02081221F2227221FAC
:101DF00030910D02432F440F842F822B37FB9927FC
:101E000090F9089668E671E00E940C2C438162818B
:101E10000C94830E20910C02221F2227221F309146
:101E20000D02432F440F842F822B37FB992790F903
:101E30008830910540F4805A9E4F40910F02609186
:101E40000E020C94830E089768E671E00E940C2C39
:101E5000F4CF60910E02683F90F4685F80910C02AD
:101E6000881F8827881F90910D02292F220F97FB2A
:101E7000992790F940910F02822B0C94830E6FEFFB
:101E8000EDCF60910E02683090F0685080910C02A6
:101E9000881F8827881F90910D02292F220F97FBFA
:101EA000992790F940910F02822B0C94830E60E0E9
:101EB000EDCF40910F02483F90F4485F80910C02B3
:101EC000881F8827881F90910D02292F220F97FBCA
:101ED000992790F960910E02822B0C94830E4FEF9C
:101EE000EDCF40910F02483090F0485080910C02A5
:101EF000881F8827881F90910D02292F220F97FB9A
:101F0000992790F960910E02822B0C94830E40E089
:101F1000EDCFCF93DF9300D000D0CDB7DEB7909157
:101F20000C0290FF47C09178811132C0926090936B
:101F30000C0280910C0290910D02A0910E02B091C2
:101F40000F0289839A83AB83BC83BC01CD010E94BD
:101F5000ED0D80910C02982F9E77923009F510922A
:101F60006201881F8827881F90910D02292F220F58
:101F700097FB992790F940910F0260910E02822BF6
:101F80000F900F900F900F90DF91CF910C94830ED4
:101F9000893110F09063CBCF8F73880F982BC7CF08
:101FA000982F9695925C9F739631D8F691E0909316
:101FB0006201D7CF0F900F900F900F90DF91CF91CC
:101FC00008958091DF0181608093DF0181E080933B
:101FD00063010E94EF1E811104C00E94CE1E0E9468
:101FE000F30D0E94E90D60930C0270930D02809333
:101FF0000E0290930F026E7761F40E94F30D0E941F
:10200000E90D60930C0270930D0280930E02909381
:102010000F0281E08093620180910C0280FF04C076
:1020200086958F730C94890F089580910C02869584
:102030008F738F5F893108F081E00C94890FCF9303
:10204000DF9300D000D0CDB7DEB790910C02892F7E
:102050008E7F90FF816080930C0280910C029091A2
:102060000D02A0910E02B0910F0289839A83AB8377
:10207000BC83BC01CD010E94ED0D80910C0280FF5C
:102080000AC086958F730F900F900F900F90DF917D
:10209000CF910C94890F109262019FEFA0E7B2E0FC
:1020A0009150A040B040E1F700C000000F900F90A9
:1020B0000F900F90DF91CF910C94170ECF93C82FF4
:1020C00080916001909161010E94991FEC2FF0E0D6
:1020D000E356F44FE491E817190609F010F50E9451
:1020E0008D1F9093610180936001E0915F01F0E0AA
:1020F000EF55F44F449180910C02881F8827881F68
:1021000090910D02292F220F97FB992790F960914A
:102110000E02822B0E94380E80915F018F5F8093A8
:102120005F01CF910895CF93C82F80915D01909169
:102130005E010E94991FEC2FF0E0E656F44FE49107
:10214000E817190609F0E8F40E948D1F90935E01CC
:1021500080935D0140910F0260910E0280915B01BE
:1021600090915C010E94380E80915B0190915C011E
:10217000019668E671E00E94F82B90935C018093D1
:102180005B01CF910895CF92DF92EF92FF921F9360
:10219000CF93DF93182F8091590190915A010E949B
:1021A000991FE12FE695F0E0E656F44FE491E81729
:1021B000190609F0C8F50E948D1F90935A0180936B
:1021C000590184E1E82E82E0F82ED0E0C0E098E6E4
:1021D000C92EDD24D39480915701909158018C0F22
:1021E0009D1FB6010E94F82B970140910F0260914C
:1021F0000E020E94660DC65ADF4F83E0E80EF11C06
:10220000C83681E0D80739F70E94170E8091570130
:102210009091580110FF10C00196BE010E94F82B4A
:102220009093580180935701DF91CF911F91FF90B8
:10223000EF90DF90CF9008950197F2CFAF92BF92C9
:10224000CF92DF92EF92FF920F931F93CF93DF9382
:10225000C82FDD24DA9480FD02C0DD24D394809160
:102260005501909156010E94991FC695EC2FF0E000
:10227000E956F44FE491E817190611F008F053C03D
:102280000E948D1F9093560180935501C4E1D2E0C6
:1022900010E000E097E0A92EB12C198218821A8272
:1022A00087E0E82EF12CC12C809154018C0D87FD24
:1022B0008C5F082E000C990B80179107E9F4209190
:1022C0000F022E9DC0012F9D900D1124B5010E947B
:1022D0000C2C462F80910C02881F8827881F909114
:1022E0000D02592F550F97FB992790F99E01609188
:1022F0000E02852B0E94660DCD0C81E0E81AF108D4
:1023000099F60F5F1F4F23960430110531F60E9496
:10231000170E8091540191E0D91212C081110EC0A4
:1023200083E080935401DF91CF911F910F91FF9033
:10233000EF90DF90CF90BF90AF9008958150F1CF94
:1023400090E0019683709927ECCFBF92CF92DF92F5
:10235000EF92FF920F931F93CF93DF93CDB7DEB72A
:102360002C970FB6F894DEBF0FBECDBF182F80910B
:102370005201909153010E94991FE12FF0E0EC5619
:10238000F44FE491E817190611F008F071C00E94AB
:102390008D1F90935301809352018E010F5F1F4F49
:1023A000F12CE12C6801F801118210821282B12C0B
:1023B0009091000180915101B99E800D11248430CB
:1023C0000CF083E087FD80E0082E000C990B8E1541
:1023D0009F05A1F480910C02881F8827881F909187
:1023E0000D02592F550F97FB992790F998014091AD
:1023F0000F0260910E02852B0E94660DB394F7E0E8
:10240000BF12D6CF8FEFE81AF80A0D5F1F4FE4E036
:10241000EE16F10441F6A4E1B2E089E090E09C01FF
:1024200023703327F901EE0FFF1FE20FF31FEC0DAE
:10243000FD1D218111962C93119720812C932281CF
:1024400012962C931297019613968D30910539F7B9
:102450000E94170E90910001809151019130E1F49A
:102460008A3FB4F489EF809351018FEF809300018C
:102470002C960FB6F894DEBF0FBECDBFDF91CF9183
:102480001F910F91FF90EF90DF90CF90BF90089534
:10249000815080935101ECCF8B302CF08AE08093F7
:1024A000510181E0E3CF8F5FF4CFCF93DF93809131
:1024B0004F01909150010E94991F883E934028F14E
:1024C0000E948D1F9093500180934F0180914D0188
:1024D00090914E0101968170992790934E018093BF
:1024E0004D01C4E1D2E09E0140910F0260910E02C5
:1024F00090E080E00E94660D239682E0C032D8070B
:1025000091F7DF91CF910C94170EDF91CF91089541
:1025100080916201882371F180910C0286958F73FE
:102520009EE3980F9F73943018F482500C945E10C1
:102530009AE3980F9F73933018F486500C9493107D
:1025400097E3980F9F73963018F489500C94C3103A
:1025500091E3980F9F73963018F48F500C941E11CE
:102560009BE2980F9F73933018F485510C94A5113A
:102570000C94551208959093690180936801089511
:10258000E0916801F0916901309721F00190F081AC
:10259000E02D099480E00895E0916801F0916901CF
:1025A000309721F00280F381E02D09940895E091A5
:1025B0006801F0916901309721F00480F581E02DE8
:1025C0000994089520916601309167012817390711
:1025D00071F09093670180936601E0916801F0913A
:1025E0006901309721F00680F781E02D0994089564
:1025F00020916401309165012817390771F090939B
:10260000650180936401E0916801F0916901309760
:1026100021F00084F185E02D0994089508950C942B
:102620000E130E94841F0E942E0C0E9446200C94C0
:10263000E10FBF92CF92DF92EF92FF920F931F9321
:10264000CF93DF9300D000D00F92CDB7DEB70E94BA
:10265000820C8BE6C82E81E0D82E10E000E0E02E40
:10266000802F0E94250DB82EF601F1906F01F8160B
:1026700009F45BC08091DF0181FD0E942B0D30E0E9
:1026800020E0FB244F2D50E0922FBA01022E02C011
:10269000759567950A94E2F760FF41C02983EA8245
:1026A00021E030E0790102C0EE0CFF1C9A95E2F7C0
:1026B0002B2D30E02E213F2181E0232B09F480E0F7
:1026C0008B830E948D1F8160782F9D838C8349812D
:1026D0005A816B818D810E94BB13F801E559FE4F31
:1026E00080818E2580830E94F3220E94C0129091E7
:1026F0006A01891789F10E94C01280936A010F90C4
:102700000F900F900F900F90DF91CF911F910F912D
:10271000FF90EF90DF90CF90BF900C94D0092F5F87
:102720003F4F2430310509F0AFCF0F5F1F4F04300A
:10273000110509F094CF8FEF89838A831B820E9451
:102740008D1F8160782F9D838C8349815A816B8195
:102750008D810E94BB13C7CF0F900F900F900F90E9
:102760000F90DF91CF911F910F91FF90EF90DF902D
:10277000CF90BF900895CF93DF93CDB7DEB72B975F
:102780000FB6F894DEBF0FBECDBF4F835887698761
:102790007A878B871E8285E0FE013796DE011196CF
:1027A00001900D928A95E1F749815A816B817C8174
:1027B0008D819E812B960FB6F894DEBF0FBECDBFE4
:1027C000DF91CF910C94321A882309F4D8C0823853
:1027D00071F40E94C01281FDD2C089E30E94D51D10
:1027E0000E949F1E89E30E94121E0C949F1E833834
:1027F00059F40E94C01280FDC2C083E50E94D51D1D
:102800000E949F1E83E5EFCF843859F40E94C012C6
:1028100082FDB5C087E40E94D51D0E949F1E87E4FB
:10282000E2CF9CEF980F913A18F40E94D51DDDCFAE
:1028300090E2980F983050F4877091E001C0990FA2
:102840008A95EAF7892F0E94561ECFCF9BE5980FF5
:10285000933070F4853A31F0863A39F083E890E0AD
:102860000C94E21281E890E0FBCF82E890E0F8CF90
:1028700098E5980F953108F082C0883A09F440C075
:10288000893A09F440C08A3A09F440C08B3A09F405
:1028900040C08C3A09F440C08B3B09F440C08C3BEB
:1028A00009F440C08D3A09F440C0803B09F440C0AF
:1028B0008E3A09F440C08F3A09F440C0813B09F4D4
:1028C00040C0823B09F440C0833B09F440C0843BD4
:1028D00009F440C0853B09F440C0863B09F440C080
:1028E000873B09F440C0883B09F440C0893B09F4A8
:1028F00040C08A3B09F440C090E080E00C94F8129C
:1029000082EE90E0FBCF89EE90E0F8CF8AEE90E087
:10291000F5CF85EB90E0F2CF86EB90E0EFCF83EB45
:1029200090E0ECCF84EB90E0E9CF87EB90E0E6CF4E
:102930008CEC90E0E3CF8DEC90E0E0CF83E891E089
:10294000DDCF8AE891E0DACF82E991E0D7CF84E960
:1029500091E0D4CF81E292E0D1CF83E292E0CECF7A
:1029600084E292E0CBCF85E292E0C8CF86E292E0AB
:10297000C5CF87E292E0C2CF8AE292E0BFCF08954E
:10298000882309F44BC0823871F40E94C01281FF81
:1029900045C089E30E94D51D0E949F1E89E30E94C5
:1029A000121E0C949F1E833859F40E94C01280FF9F
:1029B00035C083E50E94D51D0E949F1E83E5EFCFA1
:1029C000843859F40E94C01282FF28C087E40E9414
:1029D000D51D0E949F1E87E4E2CF9CEF980F913A8D
:1029E000F0F290E2980F983050F4877091E001C0B7
:1029F000990F8A95EAF7892F0E945C1ED2CF9BE53A
:102A0000980F933020F490E080E00C94E212885A02
:102A1000853120F490E080E00C94F812089588232A
:102A200021F00E94561E0C949F1E0895882321F0C9
:102A30000E945C1E0C949F1E08958F929F92AF92ED
:102A4000BF92DF92EF92FF920F931F93CF93DF938A
:102A500000D000D00F92CDB7DEB77C016D837983B3
:102A6000FC01058102950F70128111110E94751EE3
:102A70000E94CE1DD82E882371F01123A1F08D81E4
:102A8000805E883080F082E00E94B81D0E94CE1DDA
:102A900091E0D82ED926E981E295EF70F0E0E55675
:102AA000F34D0C94202CD12CF6CF09810F70F981B5
:102AB000F07F11F00295007F1123B1F0002361F047
:102AC0008D81805E883018F02D81211109C0802F02
:102AD0000E94561E0E949F1E8D810E94E41315C005
:102AE000802F0E94671EF6CF8D810E94C0140023A4
:102AF00061F08D81805E883018F03D81311129C0F0
:102B0000802F0E945C1E0E949F1EDD2009F4D3C10D
:102B10000E94AB1D80FDCFC1F70112820E94A51D4E
:102B20000E94F01BC7010E946C170E94A51D0F9008
:102B30000F900F900F900F90DF91CF911F910F91F9
:102B4000FF90EF90DF90BF90AF909F908F900C948C
:102B5000121C802F0E946D1ED6CF49814F70B42E5B
:102B60005981507F503219F0B29480EFB8228D8194
:102B7000882369F0813029F1112369F1002359F08C
:102B8000F701858180FFA8CF8F70858304C0112352
:102B900061F0011104C08B2D0E940F15B6CF8B2D53
:102BA0000130D1F70E94891EB0CF011106C00E94EA
:102BB0008C1E8B2D0E941615A8CF013009F4A5CFCD
:102BC000F6CF112321F0063008F09FCFE4CF053077
:102BD00008F09BCFEECF002361F38D810E94C014DB
:102BE00094CF898186958695837069F0813009F04C
:102BF0008CCF8D8199819370111102C090E080E09B
:102C00000E94F81282CF8D8199819370111102C0B8
:102C100090E080E00E94E21278CF8D81112329F0AC
:102C20000E9401220E94E82270CF0E946922FACFFE
:102C30008981837009F05FC0111167CF2D812295C2
:102C400026952770220F220F8D818F7090E0B0E0C3
:102C5000A0E04C015D01022E04C0880C991CAA1C46
:102C6000BB1C0A94D2F7FD8160E070E0CB01F4FF59
:102C70000FC06FE070E080E090E004C0660F771F47
:102C8000881F991F2A95D2F7609570958095909529
:102C900029812695269523702D832230B1F023308B
:102CA00019F19B01AC01282939294A295B2929837B
:102CB0003A834B835C833D8169817A818B819C81DE
:102CC0003130B1F00E947D1B20CF9B01AC0128293F
:102CD00039294A295B2929833A834B835C83CA01BA
:102CE000B9010E94A71B11CF0E947D1BC501B40131
:102CF0000E94531B0ACF8695112311F089818170A0
:102D0000882309F402CF2D81229526952770220F62
:102D1000220F8D818F7090E0B0E0A0E04C015D014A
:102D2000022E04C0880C991CAA1CBB1C0A94D2F762
:102D30003D8160E070E0CB0134FF0FC06FE070E0D8
:102D400080E090E004C0660F771F881F991F2A95C6
:102D5000D2F76095709580959095498146954695F6
:102D600043704D834230B1F0433019F19B01AC0107
:102D7000282939294A295B2929833A834B835C8393
:102D80003D8169817A818B819C813130B1F00E94D3
:102D9000831CBBCE9B01AC01282939294A295B2918
:102DA00029833A834B835C83CA01B9010E94AD1C1D
:102DB000ACCE0E94831CC501B4010E94591CA5CE53
:102DC0003D81323F09F447C080F4303F79F1313F13
:102DD000D9F1832F805E8031D0F0112309F456C0E1
:102DE00001117ACE89818F7133C04D81433FD1F17A
:102DF000443F99F7112309F43FC089818F7189837A
:102E00000E94F01B63E089810E94AF1D7ECE5D8130
:102E10005F705D8389818F71112321F00E94F01B07
:102E20008D81BACE0E94121C8D81C4CE112341F037
:102E3000053008F06ACE89818F710E94371C65CEFB
:102E4000063008F062CEF7CF89818F71112339F0F7
:102E50000E94F01B5ACE89818F711123C9F30E9401
:102E6000121C53CE112329F089818F710E94DB1B24
:102E70004CCE0E94D11B49CE81E00E94B81D023089
:102E800008F443CE82E00E94B81D3FCE0111A5CECA
:102E900089818F71E4CF49814F706D81C7010E9494
:102EA000EF070E94CC1A31CE49814F706D81C70166
:102EB0000E94D2092ACE0F900F900F900F900F9082
:102EC000DF91CF911F910F91FF90EF90DF90BF9016
:102ED000AF909F908F9008950F931F93CF93DF93A0
:102EE000EC018B819C81892B29F088819981892330
:102EF0008F3F29F4DF91CF911F910F910895CE015B
:102F00000E9468088823B1F3688179818A810E94D0
:102F10007B1D8C010E94D71C0E94481BB801CE016A
:102F2000DF91CF911F910F910C941D150E94751E7A
:102F30000E94861E0E94481E0E949F1E0E94D92346
:102F40000E94E82290E080E00E94E21290E080E09F
:102F50000C94F8120E94641E0C9496170E946F1D28
:102F6000282F892F82958F70903C80F48A30B0F49E
:102F7000843020F4823090F480E008958630E1F7C8
:102F800081E0203E88F0213FB9F70EC08C3011F06F
:102F90008F3091F793FB882780F9089581E0203FD7
:102FA00039F018F4203E40F70895243F29F7FCCF6C
:102FB0000895CF93DF9300D000D00F92CDB7DEB746
:102FC0000F900F900F900F900F90DF91CF91089579
:102FD000CF93DF9300D000D000D0CDB7DEB72696D8
:102FE0000FB6F894DEBF0FBECDBFDF91CF9108952D
:102FF0001F93CF93DF93E091700116E080917101F0
:103000008E1304C0DF91CF911F910895CE2FD0E091
:103010001E9FF0011124EE58FE4F408151816281C4
:103020007381848195810E94E817FE013196E770D3
:10303000E5CF4091A2015091A3016091A40170914C
:10304000A5018091A6019091A7010C94E8171F9308
:10305000CF93DF938091A701807FC1F48091A40179
:103060008823A1F080917001C09171016091A2014B
:103070007091A3014091A5015091A601D62FD723AD
:10308000DA01A095B09516E0C81304C0DF91CF9186
:103090001F91089590E04115510511F0DF3F31F483
:1030A00001968770F1CF2A0F3B1F17C0189FF001C0
:1030B000199FF00D1124EE58FE4F21812713F0CFF8
:1030C00020812613EDCF22812111EACF2381348183
:1030D0002417350740F3241B350B283C310500F736
:1030E0002091A7012F7020612093A70126E0289F3F
:1030F000F001299FF00D1124E958FE4F80818F7057
:103100008061808382EA91E00E946C17DF91CF9109
:103110001F910C94F8179F92AF92BF92CF92DF92BB
:10312000EF92FF920F931F93CF93DF93CDB7DEB74C
:103130002B970FB6F894DEBF0FBECDBF8C0185E094
:10314000F801DE01179601900D928A95E1F7D801FA
:103150004C9111965C9111971296EC901297809178
:10316000A5019091A601009709F46BC12091A201DD
:103170003091A301632F62236F3F09F462C113965C
:10318000CD90DC909090A401992009F4F8C0C81665
:10319000D90608F43FC0F601E81BF90BCF01FF2464
:1031A000F394883C910508F0F12C82EAA82E81E086
:1031B000B82E8091A701982F907FFF2009F4B7C007
:1031C000911180C0FE2C35132AC0241328C0E110B1
:1031D00026C08F7080618093A7010E941918C501D5
:1031E0000E946C178091A701D80115968C938F2DA2
:1031F0002B960FB6F894DEBF0FBECDBFDF91CF91F7
:103200001F910F91FF90EF90DF90CF90BF90AF9004
:103210009F900895809590958C0D9D1DC0CFCD28D1
:1032200029F0842F85238F3F09F019C180E0B82F42
:10323000B170DB2EE09170012091710136E080FDCC
:103240001CC0EE20A1F28091A70181608093A701AC
:10325000F12CCDCF8E2F90E03E9FF0011124EE583F
:10326000FE4F6181651306C06081641303C06281F3
:103270006E11E7CFFC013196E770E213EBCF4F837D
:1032800058878F8198850E946F1D292F22952F7056
:10329000903260F0225F2F70223078F49F7051F0EE
:1032A000F8019581907F31F4D12C0AC09F7011F004
:1032B0008823D1F3805E8830B8F3C8010E946C1770
:1032C000FD2C95CF351306C0241304C0D801EE2081
:1032D00009F47BC04F8358878F8198850E94AE1771
:1032E000882309F4B8C0EE2009F4B5C08091A70185
:1032F000803270F02091A2013091A3013A8329839A
:103300001B82DD82CC828E83CE0101960E946C17D7
:1033100086E0F801A2EAB1E001900D928A95E1F70A
:103320000E9427180E941918FF24F39460CF91116E
:1033300013C07C2DDB86CA866E2D8B850E94D91723
:1033400082EA91E00E946C1786E0F50111928A955D
:10335000E9F70E9419184BCF3513BCCF2413BACF0D
:10336000E110B8CFD80115968C93C8010E946C1754
:1033700086E0F50111928A95E9F7F92C38CFC81645
:10338000D90688F1B601681B790BCB01F12C883C7A
:10339000910508F047C0FE2CEE2009F45CC03513FF
:1033A00030C024132EC08091A70180FD21C0982F2A
:1033B000907FF1F0D80115968C931597903F39F0D6
:1033C000982F907F905F8F70892B15968C93C801F2
:1033D0000E946C1786E0F801A2EAB1E001900D921C
:1033E0008A95E1F7B6CF809590958C0D9D1DCECF37
:1033F00086E0F801A2EAB1E001900D928A95E1F72A
:10340000F6CE4F8358878F8198850E94AE17811121
:103410007FCF8091A70181608093A701C8010E949E
:103420006C17E5CE7C2DDB86CA866E2D8B850E94BF
:10343000D91786E0E2EAF1E0DF011D928A95E9F70B
:1034400088CFEE2041F04F8358878F8198850E9466
:10345000AE1781115DCFC8010E946C1765CF81E066
:103460008E25E5CE1F93CF93DF93CDB7DEB72C9794
:103470000FB6F894DEBF0FBECDBF4F835887698764
:103480007A878B879C87CE0107960E948B188823AA
:1034900069F08A859B85892B39F04F815885842F67
:1034A00085238F3F09F071C016E05FC086E0FE0102
:1034B0003796DE01119601900D928A95E1F78A8583
:1034C0009B85892B89F388859F8189238F3F61F3B1
:1034D0002091710130E0C9010196877099274091D0
:1034E00070014817190671F40E94AA171092710111
:1034F0001092700186E0E2EAF1E0DF011D928A9508
:10350000E9F7D2CF96E0929FD001939FB00D11249E
:10351000AE58BE4FFE01319601900D929A95E1F79B
:10352000809371010E94F817BFCF819FC0011124C1
:103530008E589E4F0E948B188823E9F0E09170010D
:103540001E9FF0011124EE58FE4F4081518162818F
:103550007381848195810E94E8178091700190E0C9
:1035600001968770992780937001809170019091E6
:1035700071018913DACF2C960FB6F894DEBF0FBE17
:10358000CDBFDF91CF911F91089569857A858B8595
:103590009C850E94E81788CFEF92FF920F931F93AC
:1035A000CF93DF938C01892B89F0F12CEE24E394E7
:1035B000E8012196F8018491843709F457C0A0F4FA
:1035C000823009F43EC048F48130D1F0DF91CF91D0
:1035D0001F910F91FF90EF9008959CEF980F9037F7
:1035E000A8F70E94E4130AC0853709F44CC09CE791
:1035F000980F903758F78F770E94C0148E0116C02D
:103600000E5F1F4FFE01849190E2980F983060F496
:103610008770FE2D01C0FF0F8A95EAF78F2F0E9459
:10362000781E0E949F1E02C00E94E4138F2D8150BD
:1036300008F4BECFEFE9FFE03197F1F700C00000DA
:10364000F6CF0E5F1F4FFE01849190E2980F9830E5
:1036500050F48770FE2D01C0FF0F8A95EAF78F2F77
:103660000E947E1EDECF0E94C014E0CF0E5F1F4F6F
:10367000FE01C491C150D0F28FE99FE00197F1F7AC
:1036800000C00000F7CF0E5F1F4FFE01F490CECFB9
:1036900008956093B6017093B7018093B801909339
:1036A000B9010C949617CF93DF9300D000D0CDB71B
:1036B000DEB769837A838B839C838091B601909176
:1036C000B701A091B801B091B90129813A814B812C
:1036D0005C81822B932BA42BB52B8093B601909306
:1036E000B701A093B801B093B9010F900F900F905C
:1036F0000F90DF91CF910C949617CF93DF9300D06A
:1037000000D0CDB7DEB769837A838B839C838091A9
:10371000B6019091B701A091B801B091B90129818A
:103720003A814B815C8182239323A423B523809328
:10373000B6019093B701A093B801B093B9010F906F
:103740000F900F900F90DF91CF910C949617CF931D
:10375000DF9300D000D0CDB7DEB769837A838B8347
:103760009C838091B6019091B701A091B801B0916E
:10377000B90129813A814B815C8182279327A42753
:10378000B5278093B6019093B701A093B801B09389
:10379000B9010F900F900F900F90DF91CF910C9483
:1037A00096171092B2011092B3011092B4011092C8
:1037B000B5010C94961741E050E060E070E004C061
:1037C000440F551F661F771F8A95D2F74093B201A9
:1037D0005093B3016093B4017093B5010C949617A4
:1037E000282F81E090E0A0E0B0E004C0880F991F8E
:1037F000AA1FBB1F2A95D2F74091B2015091B30185
:103800006091B4017091B501842B952BA62BB72B39
:103810008093B2019093B301A093B401B093B5012A
:103820000C94961741E050E060E070E004C0440F53
:10383000551F661F771F8A95D2F740955095609562
:1038400070958091B2019091B301A091B401B091B3
:10385000B50184239523A623B7238093B2019093C7
:10386000B301A093B401B093B5010C949617282F1F
:1038700081E090E0A0E0B0E004C0880F991FAA1F8B
:10388000BB1F2A95D2F74091B2015091B3016091CC
:10389000B4017091B50184279527A627B727809397
:1038A000B2019093B301A093B401B093B5010C940D
:1038B0009617CF93DF9300D000D0CDB7DEB76983E2
:1038C0007A838B839C838091B2019091B301A09104
:1038D000B401B091B50129813A814B815C81822B81
:1038E000932BA42BB52B8093B2019093B301A0939B
:1038F000B401B093B5010F900F900F900F90DF912E
:10390000CF910C949617CF93DF9300D000D0CDB712
:10391000DEB769837A838B839C838091B201909117
:10392000B301A091B401B091B50129813A814B81D5
:103930005C8182239323A423B5238093B2019093C7
:10394000B301A093B401B093B5010F900F900F9005
:103950000F90DF91CF910C949617CF93DF9300D007
:1039600000D0CDB7DEB769837A838B839C83809147
:10397000B2019091B301A091B401B091B501298138
:103980003A814B815C8182279327A427B5278093B6
:10399000B2019093B301A093B401B093B5010F901D
:1039A0000F900F900F90DF91CF910C949617089580
:1039B000E92FEE0FEE0FE80F8E2F877041E001C068
:1039C000440F8A95EAF7E695E695E69585E0E89F47
:1039D000F0011124E855FE4F30E020E070E05191F5
:1039E000DF011197CB01022E02C0969587950A94AC
:1039F000E2F7817081958527842385278C932F5F3B
:103A00003F4F2530310559F70895E92FEE0FEE0F9E
:103A1000E80F9E2F9770E695E695E69585E0E89F7E
:103A2000F0011124E855FE4F50E040E080E0219184
:103A300030E0092E02C0369527950A94E2F72170EE
:103A40003327042E01C0220F0A94EAF7822B4F5F1E
:103A50005F4F4530510559F70895BF92CF92DF92DD
:103A6000EF92FF920F931F93CF93DF938C01C0903F
:103A7000B201D090B301E090B401F090B501809113
:103A8000B6019091B701A091B801B091B901C82ACF
:103A9000D92AEA2AFB2ACFE1D0E0BC2ED701C60101
:103AA0000C2E04C0B695A795979587950A94D2F7E2
:103AB00080FD0EC0219788F7B12C8B2DDF91CF911F
:103AC0001F910F91FF90EF90DF90CF90BF900895DE
:103AD000B8018C2F0E94EE09019761F3EECFCF93CE
:103AE000DF93D82FC92F0E942D1D6D2F7C2FDF91C2
:103AF000CF910C94EE091F93CF93DF93162FD72FFE
:103B000090916F01992339F0862F972FDF91CF91F4
:103B10001F910C946F1D882391F0862F972F0E9480
:103B20002D1DC82F682F812F9D2F0E94D81C612F1B
:103B30007D2F8C2FDF91CF911F910C94EE09862F52
:103B4000972F0E94051DC82FF2CF8091BA0185954D
:103B50008595859508958091BA018770089598E0BC
:103B6000899F90011124622B6093BA010C94F01B81
:103B70009091BA01809589238093BA01282F2770EC
:103B800061F4282F082E000C330B9217130629F02E
:103B90008595859585950C94121C08959091BA0190
:103BA000977081E009F480E00895909113019923C2
:103BB000E1F09091240297FF18C0E82FE695E69572
:103BC000E695EF3139F12091010130910201E20FC8
:103BD000F32FF11D877021E030E001C0220F8A959C
:103BE000EAF78181822B8183089520910101309130
:103BF0000201F90132969FEF40E05191851751F093
:103C00009F3F19F4511101C0942F4F5F4E31A9F716
:103C10009F3F09F40895290F311D97FD3A95F90149
:103C20008283089590911301992301F190912402C8
:103C300097FF1CC0E82FE695E695E695EF3139F140
:103C40002091010130910201E20FF32FF11D8770E5
:103C500021E030E0A90102C0440F551F8A95E2F728
:103C6000CA01809591818923818308952091010162
:103C700030910201F9013296205E3F4F91918913F4
:103C800003C0DF0111971C92E217F307B9F70895FB
:103C900081E090E0E0910101F0910201E80FF91F4D
:103CA0001082019680329105A9F708959091DE0166
:103CB000982B9093DE010895982F90958091DE01C6
:103CC00089238093DE0108951092DE01089590917A
:103CD000DD01982B9093DD010895982F90958091A8
:103CE000DD0189238093DD0108951092DD0108959F
:103CF0009091DC01982B9093DC010895982F90957A
:103D00008091DC0189238093DC0108951092DC010D
:103D100008958093BB0108951092BB0108952091EE
:103D2000010130910201F9013196205E3F4F80E0A0
:103D3000919191118F5FE217F307D1F70895E09108
:103D40000101F09102018091DE018083E091010187
:103D5000F091020180819091DD01892B8083E091B7
:103D60000101F091020180819091DC01892B808317
:103D70009091BB01992361F0E0910101F091020162
:103D80008081892B80830E948F1E81111092BB013C
:103D900080910101909102010C94CC126DEE7EEFA6
:103DA00090E080E00E94582C60E082E090E00E9469
:103DB0003A2C60E083E090E00E943A2C60E084E0DE
:103DC00090E00E943A2C60E085E090E00E943A2C5E
:103DD00040E050E0BA0188E090E00C944C2C90E078
:103DE00080E00E94342C9C0181E02D3E3E4F09F082
:103DF00080E0089582E090E00C94262C682F82E009
:103E000090E00C943A2C83E090E00C94262C682FE0
:103E100083E090E00C943A2C84E090E00C94262C03
:103E2000682F84E090E00C943A2C80912A02843030
:103E300039F11092E00188E190E020E40FB6F894A7
:103E4000A895809360000FBE2093600080E00E94E0
:103E5000D00983B7817F846083BF83B7816083BFCC
:103E60007894889583B78E7F83BF0FB6F894A89512
:103E700080916000886180936000109260000FBEA6
:103E8000089508950895CF930E94411F0E94820CC7
:103E90000E94421FC0E08C2F0E94250D811105C099
:103EA000CF5FC430C1F7CF91089581E0FCCF0E946D
:103EB000AA170E94C0120C94D0091F921FB61F921D
:103EC00011248F939F93AF93BF938091E001811151
:103ED00013C08091200290912102A0912202B09102
:103EE00023024196A11DB11D8093200290932102CF
:103EF000A0932202B0932302BF91AF919F918F9123
:103F00001F901FBE1F90189582E084BD93E095BD61
:103F10009AEF97BD80936E0008952FB7F894809123
:103F2000200290912102A0912202B09123022FBF82
:103F30000895CF92DF92EF92FF929C014FB7F894D1
:103F40008091200290912102A0912202B09123023F
:103F50004FBF6C017D01EE24FF24A90170E060E0F9
:103F6000C416D506E606F70638F0821B930BFF90C1
:103F7000EF90DF90CF9008950197F7CF1F921FB673
:103F80001F9211248F939F93AF93BF938091200230
:103F900090912102A0912202B09123020196A11DCD
:103FA000B11D8093200290932102A0932202B0932E
:103FB0002302BF91AF919F918F911F901FBE1F90C1
:103FC00018950E94CF27F8942FEF87EA91E62150A9
:103FD00080409040E1F700C0000087E090EBDC01FA
:103FE0008093330290933402A0933502B09336024B
:103FF00088E19CE00FB6F894A895809360000FBE0E
:1040000090936000FFCFCF92DF92EF92FF920F93D9
:104010001F93CF93C0E0E82EF12C8C2F0E94250D2A
:1040200010E000E0C82ED12CC601002E02C09595EC
:1040300087950A94E2F780FF11C0602F7C2F80E003
:104040000E94D309E816F90649F481E0CF911F9147
:104050000F91FF90EF90DF90CF9008950F5F1F4F6B
:104060000430110509F7CF5FC430B9F680E0EECF18
:10407000CF93C82F8CE20E940320882321F08C2F3D
:10408000CF910C94032080E0CF910895CF93DF93DC
:1040900000D000D0CDB7DEB70E94EF1E811102C064
:1040A0000E94CE1E95E6998308C00E94820C8FE381
:1040B0009CE90197F1F700C00000A981A150A983F4
:1040C000A111F3CF89E20E943820811110C18AE248
:1040D0000E94382081110E94CE1E85E00E94382067
:1040E00081110E94E11F0E94FA1E8093DF0187E088
:1040F0000E943820882371F08BE10E9438208823A9
:1041000009F4D1C09091DF01892F8D7F91FF8260EA
:104110008093DF018091DF010E94FE1E0E940C1F30
:1041200090E0909325028093240280EE0E94382034
:10413000882341F090912402892F8E7F90FF816027
:104140008093240289E30E943820882341F09091D3
:104150002402892F8D7F91FF82608093240282EE5A
:104160000E943820882341F090912402892F8B7F70
:1041700092FF84608093240286EE0E943820882378
:1041800041F090912402892F877F93FF886080936C
:10419000240283EE0E943820882341F0909124026B
:1041A000892F8F7E94FF80618093240285E30E9493
:1041B0003820882341F090912402892F8F7D95FF2C
:1041C00080628093240281E30E943820882341F09A
:1041D00090912402892F8F7B96FF80648093240224
:1041E00081E10E943820882341F090912402892F98
:1041F00097FB87F9805880932402809124020E94C3
:10420000101F87E20E94382089838EE10E943820A7
:10421000882319F0B981B260B9838FE10E943820F8
:10422000882319F029812460298380E20E943820A4
:10423000882319F039813860398381E20E9438205F
:10424000882319F049814061498382E20E94382025
:10425000882319F059815062598383E20E943820E3
:10426000882319F089818064898384E20E94382040
:104270008823B1F199819068998389810E94071FF1
:104280003981232F30E050E040E029833A834B838B
:104290005C83CA01B9010F900F900F900F90DF91CE
:1042A000CF910C94491B8EE00E943820882339F06E
:1042B0009091DF01892F8B7F92FF846029CF80E16D
:1042C0000E9438209091DF01882329F0892F877F71
:1042D00093FF88601DCF892F8E7F90FF816018CF5C
:1042E000A981A111CACF0E94031F282FCBCF0F9005
:1042F0000F900F900F90DF91CF9108958091E3017F
:1043000080FF12C06091060185E0689FB001112412
:10431000759567957595679560387105A8F5611570
:104320007105A1F1862F089581FF09C060910601F2
:1043300085E0689FB001112475956795EDCF609178
:10434000060182FD0AC08091E4018823D1F090919A
:10435000050160910601891728F085E0689FB0018A
:104360001124DACF869FB001112485E0869F900149
:10437000879F300D1124692F70E0C9010E940C2C19
:10438000CBCF65E070E0CECF8FE7089581E0089550
:104390008091E30180FF0CC06091040170E075958D
:1043A0006795759567956115710549F1862F089593
:1043B00081FF06C06091040170E075956795F3CFA9
:1043C0006091040182FD0BC09091E4019923A1F05A
:1043D0006091030180910401961738F0682F70E016
:1043E0006038710500F38FE70895899FC00111249B
:1043F00070E00E940C2CF4CF61E070E0D7CF81E038
:104400000895803F31F40E947E2181958093E701D9
:104410000895813F19F40E947E21F8CF823F31F444
:104420000E947E2181958093E6010895833F19F4CF
:104430000E947E21F8CF893F29F40E94C8218093F1
:10444000E80108958A3F21F40E94C8218195F7CFA1
:104450008B3F31F40E94C82181958093E901089532
:104460008C3F19F40E94C821F8CF843F31F4809129
:10447000E50181608093E5010895853F21F48091F5
:10448000E5018260F7CF863F21F48091E5018460E9
:10449000F1CF873F21F48091E5018860EBCF883F21
:1044A00021F48091E5018061E5CF8D3F31F4809169
:1044B000E30181608093E30108958E3F21F48091B0
:1044C000E3018260F7CF8F3FB9F78091E301846009
:1044D000F1CF9091E601803F41F48091E70187FDA3
:1044E0001092E701992371F00895813F29F480919A
:1044F000E7011816ACF3F6CF823F81F497FFF2CFB5
:104500001092E6018091E7019091E801892B90914A
:10451000E901892B49F71092E4010895833F19F4CA
:10452000191674F3DFCF893F39F48091E80118162A
:10453000CCF61092E801D6CF8A3F29F48091E801A9
:1045400087FFD0CFF6CF8B3F39F48091E90187FF09
:10455000C9CF1092E901C6CF8C3F29F48091E901BF
:104560001816BCF3BFCF843F31F48091E5018E7FF4
:104570008093E501B7CF853F21F48091E5018D7FE0
:10458000F7CF863F21F48091E5018B7FF1CF873F04
:1045900021F48091E501877FEBCF883F21F4809162
:1045A000E5018F7EE5CF8D3F31F48091E3018E7F71
:1045B0008093E30197CF8E3F21F48091E3018D7FBB
:1045C000F7CF8F3F09F08ECF8091E3018B7FF0CF43
:1045D00085EE91E00E94D7120E948D1F9093E20118
:1045E0008093E10108951F93CF93DF9300D000D013
:1045F00000D0CDB7DEB78091E1019091E2010E9439
:10460000991FAC018091E4012091070130E08111F4
:1046100006C0209108019AE0299F900111244217B9
:10462000530788F02091E601A091E701A98310913A
:10463000E801B091E901BE8321110FC09A2F912B9F
:104640009B2B09F0B2C026960FB6F894DEBF0FBEC2
:10465000CDBFDF91CF911F9108958F3F19F08F5FEC
:104660008093E401121624F40E947E218093E601D7
:104670008091E60187FF05C00E947E21819580938D
:10468000E6012981121624F40E947E218093E7011D
:104690008091E70187FF05C00E947E21819580936C
:1046A000E7018091E601882309F455C03091E701C4
:1046B0003D83332309F44FC0282F880F330B440B5D
:1046C000550B29833A834B835C83CA01B9010E944D
:1046D000FF2A23E333E343E35FE369837A838B8336
:1046E0009C8369817A818B819C810E94632B698381
:1046F0007A838B839C8369817A818B819C810E94E0
:10470000C72A6093E6018D81082E000C990BAA0B35
:10471000BB0B89839A83AB83BC83BC01CD010E9410
:10472000FF2A23E333E343E35FE369837A838B83E5
:104730009C8369817A818B819C810E94632B698330
:104740007A838B839C8369817A818B819C810E948F
:10475000C72A6093E701111624F40E94C8218093B0
:10476000E8018091E80187FF05C00E94C82181957A
:104770008093E8019E81191624F40E94C821809339
:10478000E9018091E90187FF05C00E94C821819558
:104790008093E90126960FB6F894DEBF0FBECDBF19
:1047A000DF91CF911F910C94E8228F3F09F057CFF2
:1047B00068CF85E0E5EEF1E0DF011D928A95E9F72B
:1047C0001092E4011092E301089580910A02089585
:1047D000CF93DF9300D00F92CDB7DEB720912A029E
:1047E000243019F523E029838A839B832093E900F1
:1047F0008FEF9091E800815095FD06C095ED9A9558
:10480000F1F700008111F5CF8091E80085FF0DC020
:1048100050E040E063E070E0CE0101960E94472640
:104820008091E8008E778093E8000F900F900F90B2
:10483000DF91CF910895CF93DF9300D00F92CDB742
:10484000DEB79C0180912A02843031F582E08983B1
:10485000205831093B832A8383E08093E9008FEF5E
:104860009091E800815095FD06C095ED9A95F1F77D
:1048700000008111F5CF8091E80085FF0DC050E068
:1048800040E063E070E0CE0101960E9447268091EF
:10489000E8008E778093E8000F900F900F90DF91E3
:1048A000CF91089520912A022430F1F422E0209340
:1048B000E9002FEF3091E800215035FD06C035EDBD
:1048C0003A95F1F700002111F5CF2091E80025FF7E
:1048D0000BC050E040E065E070E00E944726809108
:1048E000E8008E778093E8000895CF93DF93D82F68
:1048F000C92F80912A028430F1F4909113019923F9
:10490000E9F09091240297FF19C08093E9008FEF9E
:104910009091E800815095FD06C095E19A95F1F7D8
:1049200000008111F5CF8091E80050E040E060E2A6
:1049300070E085FD1AC0DF91CF91089581E08093EA
:10494000E9008FEF9091E800815095FD06C095ED4C
:104950009A95F1F700008111F5CF8091E80085FF6D
:10496000EACF50E040E068E070E08D2F9C2F0E947D
:1049700047268091E8008E778093E80080E2ED2F53
:10498000FC2FAAEEB1E001900D928A95E1F7D3CF0A
:1049900080912902811109C00E94CF270E942C28F2
:1049A0008091E20084608093E200089510922902D1
:1049B0000895089508950C94571F42E061EC81E03A
:1049C0000E944B2742E061EC82E00E944B2742E0CC
:1049D00061EC83E00E944B2742E261EC84E00C949E
:1049E0004B2780912C02893089F148F4823009F4F8
:1049F00094C0833009F44FC0813041F008958A306B
:104A000009F47BC08B3009F461C0089580912B02BA
:104A1000813A09F03FC08091E800877F8093E800E9
:104A200080912F0290913002892B61F460E28AEE2E
:104A300091E070E00E9496268091E8008B77809349
:104A4000E800089560E090E080E0F3CF80912B02D1
:104A5000813201F580912F0290913002009711F080
:104A60000397C1F48091E800877F8093E8008091EC
:104A7000E80082FF0BC08091F10080930A028091D0
:104A8000E8008B778093E8000C947F2780912A02BE
:104A90008111EDCF089580912B02813AD9F7809151
:104AA0002F0290913002892BA9F78091E800877F2F
:104AB0008093E8008091E80080FFFCCF8091130193
:104AC0008093F1008091E8008E77DCCF80912B02FB
:104AD000813201F780912F0290913002892BD1F61B
:104AE0008091E800877F8093E8000E947F27809173
:104AF0002D02809313010C94AA1780912B0281320E
:104B000049F68091E800877F8093E8000E947F2724
:104B100080912E0280930B02089580912B02813A9E
:104B200009F0B8CF8091E800877F8093E8008091FA
:104B3000E80080FFFCCF80910B02C2CF84B7877F53
:104B400084BF0FB6F894A895809160008861809327
:104B50006000109260000FBE80E8809361001092A8
:104B600061000E940F130E94CF270E942C28809181
:104B7000E20084608093E20078940E94AC2A0E9454
:104B8000111389E091E00E94BB1280912A028530C6
:104B900029F00E9419130E948812F7CF0E94151F56
:104BA00080912802882389F30E94431F882369F398
:104BB0000E943126EACF9C01DA01892F99278330A0
:104BC0009105C1F068F48130910509F445C0029760
:104BD00061F48DE690E021ED3DE02D933C93089546
:104BE00081329105E1F0829739F190E080E030E088
:104BF00020E0F3CFC9019927213059F08230910587
:104C000059F0EDECFDE0892B81F7849190E09F0154
:104C1000E4CFE5EBFDE0F9CFE1EAFDE0F6CF64306B
:104C200020F7E62FF0E0EE0FFF1FE85DFE4F20813A
:104C3000318189E090E0D1CF6430B8F670E0FB01BB
:104C4000EE0FFF1FE05EFE4F20813181645E7E4FDC
:104C5000FB01808190E0C1CF82E190E02EE33EE055
:104C6000BCCF80E189BD82E189BD09B400FEFDCFE2
:104C70008091D8008F7D8093D8008091E000826081
:104C80008093E0008091E00081FDFCCF0895AF9219
:104C9000BF92CF92DF92FF920F931F93CF93DF9338
:104CA0006C01EB018A010E949E27F82E811123C01E
:104CB0000115110539F0F80180819181C81BD90BCC
:104CC000C80ED91EB12CA12C2097A9F08091E80024
:104CD00085FD22C08091E8008E778093E800011561
:104CE0001105A1F0F80180819181A80EB91EB18251
:104CF000A08285E0F82E8F2DDF91CF911F910F912B
:104D0000FF90DF90CF90BF90AF9008950E949E27B4
:104D10008823D1F2F82EEFCFF60181916F018093B5
:104D2000F1002197FFEFAF1ABF0ACECFFC01CB01F4
:104D300020913102309132022617370790F0009708
:104D400029F42091E8002E772093E80040E00097B6
:104D500051F4411108C08091E80082FF31C080E029
:104D60000895C901F3CF20912A022223A9F1253009
:104D7000A9F12091E80023FD2DC02091E80022FD3B
:104D8000EACF2091E80020FFE2CF3091F30020919C
:104D9000F200009719F02830310558F041E0283032
:104DA000310509F040E02091E8002E772093E800DB
:104DB000CECF41914093F10001972F5F3F4FE9CF54
:104DC00080912A02882341F0853041F08091E800EB
:104DD00083FFC1CF81E0089582E0089583E00895C4
:104DE000FC01CB01209131023091320226173707A6
:104DF00090F0009729F42091E8002E772093E800A6
:104E000040E0009751F4411108C08091E80082FF12
:104E100032C080E00895C901F3CF20912A022223F5
:104E2000B1F12530B1F12091E80023FD2EC0209191
:104E3000E80022FDEACF2091E80020FFE2CF309188
:104E4000F3002091F200009719F02830310558F056
:104E500041E02830310509F040E02091E8002E774C
:104E60002093E800CECF44914093F1003196019712
:104E70002F5F3F4FE8CF80912A02882341F0853091
:104E800041F08091E80083FFC0CF81E0089582E087
:104E9000089583E00895982F973028F08F708093BD
:104EA000E90081E008959093E900242F762F50E0E7
:104EB000981731F07091EC002091ED005091F000C6
:104EC00021FD02C09F5FE8CF3091EB003E7F309321
:104ED000EB003091ED003D7F3093ED003091EB0021
:104EE00031603093EB007093EC002093ED00509311
:104EF000F0002091EE0027FDE5CF80E0089580913D
:104F00002B0287FF13C08091E80082FF06C08091CA
:104F1000E8008B778093E80004C080912A02811119
:104F2000F2CF089580912A028823D9F38091E80076
:104F300080FFF8CF8091E8008E77ECCF2091E400DD
:104F40003091E50095E6A9012091EC00822F817057
:104F500020FF06C08091E80080FF06C080E0089531
:104F60002091E80022FD1AC080912A02882389F04E
:104F7000853089F08091EB0085FD0FC02091E40021
:104F80003091E50042175307F9F29150E1F684E0C1
:104F9000089582E0089583E0089581E008950E94D5
:104FA0003D280E944528E0EEF0E08081816080830A
:104FB000E8EDF0E080818F77808319BCA7EDB0E049
:104FC0008C918E7F8C9380818F7E808310922902BA
:104FD00008950F931F93CF93DF930E943D280E9463
:104FE0004528C8EDD0E088818F77888388818068E4
:104FF000888388818F7D888319BC10922A02109241
:105000002602109228021092270200EE10E0F8010A
:1050100080818B7F808388818160888342E060E02B
:1050200080E00E944B27E1EEF0E080818E7F80835C
:10503000E2EEF0E0808181608083808188608083FF
:10504000F80180818E7F8083888180618883DF91F1
:10505000CF911F910F910895E8EDF0E080818F7E50
:105060008083E7EDF0E080818160808384E082BF0F
:1050700081E0809329020C94E927E8EDF0E080813B
:105080008E7F80831092E20008951092DA001092D1
:10509000E10008951F920F920FB60F9211242F93E3
:1050A0003F934F935F936F937F938F939F93AF93B0
:1050B000BF93EF93FF938091E10082FF0BC080913B
:1050C000E20082FF07C08091E1008B7F8093E100C6
:1050D0000E94AB2A8091DA0080FF19C08091D8002D
:1050E00080FF15C08091DA008E7F8093DA00809176
:1050F000D90080FF94C080E189BD82E189BD09B4F7
:1051000000FEFDCF81E080932A020E94C824809196
:10511000E10080FF19C08091E20080FF15C08091FE
:10512000E2008E7F8093E2008091E20080618093B4
:10513000E2008091D80080628093D80019BC85E09D
:1051400080932A020E94DA248091E10084FF29C022
:105150008091E20084FF25C080E189BD82E189BDA4
:1051600009B400FEFDCF8091D8008F7D8093D800D8
:105170008091E1008F7E8093E1008091E2008F7E3C
:105180008093E2008091E20081608093E200809150
:105190002602882309F449C084E080932A020E94F1
:1051A000DB248091E10083FF29C08091E20083FF2E
:1051B00025C08091E100877F8093E10082E08093A9
:1051C0002A02109226028091E1008E7F8093E100F6
:1051D0008091E2008E7F8093E2008091E200806106
:1051E0008093E20042E060E080E00E944B278091E3
:1051F000F00088608093F0000E94D924FF91EF9125
:10520000BF91AF919F918F917F916F915F914F91DE
:105210003F912F910F900FBE0F901F90189519BCC2
:1052200010922A020E94D62472CF8091E30087FD5B
:1052300002C081E0B2CF83E0B0CF1F920F920FB6D1
:105240000F9211242F933F934F935F936F937F930C
:105250008F939F93AF93BF93CF93DF93EF93FF937E
:10526000D091E900DF708091EC00C82FC17080FD03
:10527000C0E81092E9008091F000877F8093F000F1
:1052800078940E9461291092E9008091F000886072
:105290008093F000CD2BCF70C093E900FF91EF9188
:1052A000DF91CF91BF91AF919F918F917F916F913E
:1052B0005F914F913F912F910F900FBE0F901F90D4
:1052C00018951F93CF93DF93CDB7DEB7AA970FB68C
:1052D000F894DEBF0FBECDBF8BE292E0FC010196D9
:1052E0002091F100208322E083339207B9F70E94D6
:1052F000F1248091E80083FF16C180912B029091E8
:105300002C029A3008F00FC1E92FF0E0E555F34D7B
:105310000C94202C803881F0823809F004C18091EF
:105320002F028F708093E9008091EB0085FB882726
:1053300080F91092E90006C080912702909128021E
:10534000911182609091E800977F9093E80080939C
:10535000F1001092F1008091E8008E77E0C0882380
:1053600009F4CEC0823009F0DEC080912D02811197
:10537000D1C080912F028F7009F4D5C08093E900CD
:105380002091EB0020FFC6C0933031F48091EB00F8
:1053900080628093EB00BEC09091EB00906190938F
:1053A000EB0021E030E001C0220F8A95EAF720935C
:1053B000EA001092EA008091EB008860EACF811148
:1053C000B2C010912D021F778091E3008078812B6D
:1053D0008093E3008091E800877F8093E8000E943B
:1053E0007F278091E80080FFFCCF8091E3008068F8
:1053F0008093E30082E0111183E080932A0293C03E
:105400008058823008F08FC080912D0290912E023A
:105410008C3D23E09207A1F583E08A838AE28983A9
:105420004FB7F894DE01139620E03EE051E2E32FFF
:10543000F0E050935700E49120FF03C0E295EF7035
:105440003F5FEF708E2F90E0EA30C0F0C7968D93EB
:105450009D932F5F243159F74FBF8091E800877FDC
:105460008093E8006AE270E0CE0101960E949626E1
:105470008091E8008B778093E80055C0C096E7CF15
:10548000AE014F5F5F4F60912F020E94DB25BC0190
:10549000892B09F448C08091E800877F8093E80059
:1054A00089819A810E94F026E3CF8038E1F58091CE
:1054B000E800877F8093E800809126028093F100C6
:1054C0004ACF811130C090912D02923060F58091C9
:1054D000E800877F8093E800909326020E947F2750
:1054E00080912602882311F084E005C08091E300BA
:1054F00087FDFACF81E080932A020E94DD2413C049
:1055000080912D02813079F481E0933009F080E0C0
:10551000809328021092E9008091E800877F8093B1
:10552000E8000E947F278091E80083FF0AC08091F5
:10553000E800877F8093E8008091EB008062809391
:10554000EB00AA960FB6F894DEBF0FBECDBFDF9179
:10555000CF911F9108950895CF9380912A028823B7
:10556000A1F0C091E900CF709091EC00892F81707B
:1055700090FD80E8C82B1092E9008091E80083FD3F
:105580000E946129CF70C093E900CF9108950E94D5
:10559000CE2A6894B1110C945D2B08950E94422B81
:1055A00088F09F5798F0B92F9927B751B0F0E1F0E4
:1055B000660F771F881F991F1AF0BA95C9F714C094
:1055C000B13091F00E945C2BB1E008950C945C2BFB
:1055D000672F782F8827B85F39F0B93FCCF38695CD
:1055E00077956795B395D9F73EF49095809570952A
:1055F00061957F4F8F4F9F4F0895E89409C097FBA7
:105600003EF490958095709561957F4F8F4F9F4F99
:105610009923A9F0F92F96E9BB279395F6958795DD
:1056200077956795B795F111F8CFFAF4BB0F11F4A0
:1056300060FF1BC06F5F7F4F8F4F9F4F16C0882347
:1056400011F096E911C0772321F09EE8872F762F7D
:1056500005C0662371F096E8862F70E060E02AF0BE
:105660009A95660F771F881FDAF7880F96958795AA
:1056700097F9089557FD9058440F551F59F05F3F13
:1056800071F04795880F97FB991F61F09F3F79F064
:1056900087950895121613061406551FF2CF4695E6
:1056A000F1DF08C0161617061806991FF1CF869568
:1056B0007105610508940895E894BB27662777274C
:1056C000CB0197F908950E94762B0C94E72B0E944A
:1056D000D92B38F00E94E02B20F0952311F00C9488
:1056E000D02B0C94D62B11240C945D2B0E943A2BBA
:1056F00070F3959FC1F3950F50E0551F629FF00125
:10570000729FBB27F00DB11D639FAA27F00DB11D3D
:10571000AA1F649F6627B00DA11D661F829F2227C6
:10572000B00DA11D621F739FB00DA11D621F839F4D
:10573000A00D611D221F749F3327A00D611D231F23
:10574000849F600D211D822F762F6A2F11249F5771
:1057500050409AF0F1F088234AF0EE0FFF1FBB1F74
:10576000661F771F881F91505040A9F79E3F510533
:1057700080F00C94D02B0C945D2B5F3FE4F3983EAB
:10578000D4F3869577956795B795F795E7959F5FDD
:10579000C1F7FE2B880F911D9695879597F908956F
:1057A00097F99F6780E870E060E008959FEF80ECD4
:1057B000089500240A941616170618060906089577
:1057C00000240A9412161306140605060895092EDD
:1057D0000394000C11F4882352F0BB0F40F4BF2B4C
:1057E00011F460FF04C06F5F7F4F8F4F9F4F08958C
:1057F000AA1BBB1B51E107C0AA1FBB1FA617B707F7
:1058000010F0A61BB70B881F991F5A95A9F7809512
:105810009095BC01CD01089597FB072E16F40094D6
:1058200007D077FD09D00E94F82B07FC05D03EF485
:10583000909581959F4F0895709561957F4F08953C
:10584000EE0FFF1F0590F491E02D0994F999FECF1A
:1058500092BD81BDF89A992780B50895A6E1B0E080
:1058600044E050E00C94602CA8E1B0E042E050E04D
:105870000C94602C262FF999FECF92BD81BDF89A29
:10588000019700B4021639F01FBA20BD0FB6F89484
:10589000FA9AF99A0FBE08950396272F0E943B2C7F
:1058A0000E943A2C252F0E943B2C242F0C943B2C39
:1058B0000196272F0E943B2C0C943A2CDC01CB0143
:1058C000FC01F999FECF06C0F2BDE1BDF89A319610
:1058D00000B40D9241505040B8F70895F894FFCFAE
:1058E000FB07010807080D08130818081D082208FF
:1058F00027082C08310836083B08400845084A08A4
:105900000E09130918091D09220927092C09840900
:10591000A90931093D094109450949094D095109BB
:10592000550959095D096109650969096D09710917
:10593000750979097D0955155515AD15AD15F11583
:105940000D168515851518168515E016E0164B17EA
:105950008515851554178A29AF29932AAF29932ACB
:0A596000DF29002A932A552A612A44
:10596A00FFBC012808140A321EE523752452241BA1
:10597A0024E8230191909466F4F5F6F7404D363900
:10598A000C0FBF0E890E500EE30DFC0D150E2E0ED8
:00000001FF
